:100000000C9432130C9451130C9451130C945113FF
:100010000C9451130C9451130C9451130C945113D0
:100020000C9451130C9451130C9451130C945113C0
:100030000C9451130C9451130C9451130C945113B0
:100040000C9451130C94593F0C9451130C9451136C
:100050000C9425400C9451130C9451130C9451138F
:100060000C9451130C9451130C9451130C94511380
:100070000C9451130C94F63F0C9451130C9451139F
:100080000C9451130C9451130C9451130C94511360
:100090000C9451130C9451130C9451130C94511350
:1000A0000C9451130C9451130C9451130C94511340
:1000B0000C9451130C9451130C9451130C94511330
:1000C0000C9451130C9451130C9451130C94511320
:1000D0000C9451130C9451130C9451130C94511310
:1000E0000C945113036EDB363D9A9999993DABAA56
:1000F000AA2A3E000000803F084AD73B3BCE016E53
:1001000084BCBFFDC12F3D6C74319ABD56833DDA6E
:100110003D00C77F11BED9E4BB4C3E916BAAAABE7D
:10012000000000803F072C7AA5BA6CC590DA3B939B
:1001300065FC8BBC53F810FD3C5692834DBD879DEA
:100140003AB63DCBC9BF5BBE73DA0FC93F05A84CB9
:10015000CDB2D44EB93836A9020C50B99186880870
:100160003CA6AAAA2ABE000000803F0664EC1B3C05
:1001700004BC163E3BE5B93CC93C37C29E5A3D66BD
:100180000498083EEA69AAAA3E000000803F07637F
:100190004236B79BD8A71A39685618AEBAAB558CF9
:1001A0001D3CB7CC5763BD6DEDFD753EF617723142
:1001B000BF000000803F08000000BE922449123EAC
:1001C000ABAAAA2ABECDCCCC4C3E00000080BEAB70
:1001D000AAAAAA3E00000000BF000000803F000065
:1001E000000000084178D3BB4387D1133D190E3C72
:1001F000C3BD4282AD2B3E68EC8276BED98FE1A9A9
:100200003E4C80EFFFBE01C4FF7F3F0000000000B6
:100210006E616E00696E66003031323334353637C8
:100220003839414243444546001B5B25643B256405
:1002300048001B5B3F32356C001B5B3F323568006A
:100240001B5B25646D001B5B324A001B6300202092
:10025000200020202020202D2D2D2D2D2D2D2D2D49
:100260002D2D2D2D2D2D2D2D2D2D2D2D2D2D2D2DBE
:100270002D2D2D2D2D2D2D2D2D2D2D2D2D2D2D2DAE
:100280002D2D2D2D2D2D20202D2D2D2D2041534375
:100290004949202D2D2D2D2D0D0A00202020202014
:1002A0003030203031203032203033203034203094
:1002B000352030362030372030382030392030415A
:1002C000203042203043203044203045203046202A
:1002D00020303132333435363738394142434445A2
:1002E000460D0A005639274D0000000000000000AE
:1002F00060F54B4A8D6A95409B58C445004E0847AF
:10030000030994409B58444600905A45569F2F40FD
:1003100014CBB34500A05545B30C3540787A614005
:10032000000044453D2C6840E3C8974700402745FE
:1003300013618D405BA3F545007012458F53C44097
:100340005BA375450080A5447B143E3F14CB334628
:1003500000209F44D95F0240396C044400E095447A
:100360005F078E3FFE2AC54400807744BC74A740D7
:100370006AE7B7450080614448E102404E62D241DD
:1003800000405644128360401213C74300004344A8
:1003900079E9963F8D3DA34500403C44AC1C22408A
:1003A0006D1CAC450080FC43F0A79240754293461B
:1003B0000000F6435C8F864079E141440080B243FF
:1003C00048E13A404C37893D00809E43022BBB40B8
:1003D000843A384600008E436F12F33F12134744AD
:1003E00000808743AE47A13E51842B4600007343F3
:1003F000D7A3B03E3976AB4500004E43C1CA994001
:1004000006051F4500004D43643BEF3F2529AE45DF
:1004100000004A43DF4F1D4037AEBD4500001C437E
:100420007D3F553F8B4C554300000443D34D5A400C
:1004300068E737450000FC42BE9F8A3F3333A64140
:100440000000E642B81E253F48E17A3F0000CE4258
:10045000E5D0223F06B092450000CC4223DB793F35
:100460005BA375460000CC42448B8840E3A5E34083
:100470000000C64252B8C640B82206450000C44239
:100480007B142E3F856B1B430000AC42295CBF40B0
:100490002C3A1D480000AA426666A63FAE1FC4451E
:1004A0000000AA4248E16A405A838B470000A042FC
:1004B00014AEE73F4DD8864600009E425C8F424016
:1004C000D7113C4600009642AE47E13F0A059F45E2
:1004D00000009442000060400A2B45450000944211
:1004E0008FC295407B74484400008C42E17A543FAF
:1004F0000A7713460000784252B87E408FED0946D5
:1005000000007442C3F5E83F3367DD4500006442F4
:1005100085EB3140CD74C44500006042E17A8C40E7
:1005200000FE5C46000060427B145E40663CC445B1
:10053000000050425C8F423E33AE3D4600005042C8
:10054000713DAA3FA480DA4400004C42295C8F3EF2
:10055000D703B7450000444248E1FA3E664E954451
:10056000000024420AD7AB40F6B403460000244200
:100570009A9919401A86994600001C42A470C540F9
:100580008F3D234600001442AE47C14029951F46C7
:1005900000001442E17A2440296C84440000104297
:1005A00048E1DA3FEC0D1345000010420AD7E33F63
:1005B00029E6D445000004423D0A173FB3FB8A46B2
:1005C0000000F041AE47E13E6D0EA4470000F0414F
:1005D000295C2F40D7BBA8440000C841713D4A4068
:1005E000D7939245814B1253000000000000000099
:1005F000C03A494834682B409B58C445007886452A
:100600007AA528409B5844460080D4431F85CB3FA1
:10061000D57861400000EE42D578B9404E62D241B3
:100620000000DA42F2D23D40022BC5440000BA423B
:100630008FC22540764293460000904285EB913F61
:10064000296C044400008842295CEF3F3313C74300
:1006500000008642B81E8D40661CAC4500006C420E
:10066000C3F53840853DA3450000604248E10A409B
:10067000856B1B4300003442CDCCCC3E3313474442
:1006800000001042D7A3F03E48E141440000E84199
:100690009A9929401F85E3400000A84148E1AA40FB
:1006A00048E17A3F00009841CDCCEC3F3D76AB4528
:1006B000000098413D0A9F40CD4C554300008841C1
:1006C000295C3F40AE1FC445000080418FC2F53C0D
:1006D000F6041F45000080413D0AB73FB822064599
:1006E0000000704148E19A3F52842B46000040418F
:1006F000B81E3540A480DA4400004041D7A35040E2
:100700000A059F4500004041D7A3A840664E954486
:1007100000004041B81E054000B092450000304145
:10072000B81E453F7B640A44000020416666A63F30
:10073000CD74C4450000204114AE8740D7BBA84407
:1007400000001041CDCC2C40E1BA724300001041B2
:10075000E17AB44014EE6D44000000419A99A9403A
:10076000EC0D13450000C0409A9929400A771346C2
:100770000000C040A4709540D7939245000000004F
:100780000000000000000000000000000000000069
:100790000000000000000000000000000000000059
:1007A0000000000000000000000000000000000049
:1007B0000000000000000000000000000000000039
:1007C0000000000000000000000000000000000029
:1007D0000000000000000000000000000000000019
:1007E0000000000000000000000000000000000009
:1007F00000000000000000000000000000000000F9
:1008000000000000000000000000000000000000E8
:1008100000000000000000000000000000000000D8
:1008200000000000000000000000000000000000C8
:1008300000000000000000000000000000000000B8
:1008400000000000000000000000000000000000A8
:100850000000000000000000000000000000000098
:100860000000000000000000000000000000000088
:100870000000000000000000000000000000000078
:100880000000000000000000000000000000000068
:100890000000000000000000000000000000000058
:1008A0000000000000000000000000000000000048
:1008B0000000000000000000000000000000000038
:1008C0000000000000000000000000000000000028
:1008D0000000000000000000000000000000000018
:1008E0000000000000B74E470000000000000000BC
:1008F00000400846933A893F9B58C44500809A437C
:10090000B6F35D3F9C5844460000D841CDCC4C3DE9
:10091000AE476140000080417B14A6406666D2412C
:10092000000080411F856B40856B1B430000204108
:100930005C8F423F76429346000010410AD7034045
:10094000E3C897470000E040E17A543F48E1414462
:100950000000A040B81E9540E12AC5440000804038
:100960000AD7833F1F85E34000008040F6285C40A3
:100970001F29AE4500004040E17AA44033134744AC
:10098000000040409A99C140661CAC4500004040C0
:10099000EC51983FE1BA7243000040400AD7C3408F
:1009A000296C04440000404052B89E3E3313C743B4
:1009B0000000404085EB11407B640A440000004089
:1009C000F6288C40853DA3450000004000007040A3
:1009D00048E17A3F00000000000000000000000035
:1009E0000000000000000000000000000000000007
:1009F00000000000000000000000000000000000F7
:100A000000000000000000000000000000000000E6
:100A100000000000000000000000000000000000D6
:100A200000000000000000000000000000000000C6
:100A300000000000000000000000000000000000B6
:100A400000000000000000000000000000000000A6
:100A50000000000000000000000000000000000096
:100A60000000000000000000000000000000000086
:100A70000000000000000000000000000000000076
:100A80000000000000000000000000000000000066
:100A90000000000000000000000000000000000056
:100AA0000000000000000000000000000000000046
:100AB0000000000000000000000000000000000036
:100AC0000000000000000000000000000000000026
:100AD0000000000000000000000000000000000016
:100AE0000000000000000000000000000000000006
:100AF00000000000000000000000000000000000F6
:100B000000000000000000000000000000000000E5
:100B100000000000000000000000000000000000D5
:100B200000000000000000000000000000000000C5
:100B300000000000000000000000000000000000B5
:100B400000000000000000000000000000000000A5
:100B50000000000000000000000000000000000095
:100B60000000000000000000000000000000000085
:100B70000000000000000000000000000000000075
:100B80000000000000000000000000000000000065
:100B90000000000000000000000000000000000055
:100BA0000000000000000000000000000000000045
:100BB0000000000000000000000000000000000035
:100BC0000000000000000000000000000000000025
:100BD0000000000000000000000000000000000015
:100BE00000000000008090430C02BB409C58C445AC
:100BF00000000C42000000000000000000008841DE
:100C000014AEAF409A584446000040406666A64085
:100C1000856B1B430000803F3D0A9740AE47614013
:100C20000000803F9A99A940764293460000803F99
:100C30003D0ABF40E1BA724300000000000000001E
:100C400000000000000000000000000000000000A4
:100C50000000000000000000000000000000000094
:100C60000000000000000000000000000000000084
:100C70000000000000000000000000000000000074
:100EE000000000000000E4428716494000000000B6
:100EF00000000041F6288440A458C4450000803F0B
:100F00008FC275409A58444600000000000000005F
:100F100000000000000000000000000000000000D1
:100F200000000000000000000000000000000000C1
:100F300000000000000000000000000000000000B1
:100F400000000000000000000000000000000000A1
:1011E000000000000000803FC3F548400000000000
:1011F00000000000000000000000000000000000EF
:1012000000000000000000000000000000000000DE
:1012100000000000000000000000000000000000CE
:1012200000000000000000000000000000000000BE
:1014E0000000000000008C436ABC4C4055B7A44784
:1014F0000000CC420681AD406D1CAC450000A0420E
:10150000EC517840853DA34500003042CDCC6C4085
:10151000EC0D13450000004200008040E12AC54464
:10152000000010419A997940661CAC450000C0400B
:10153000A470DD3F853DA3450000000000000000D1
:10154000000000000000000000000000000000009B
:10155000000000000000000000000000F5C2BE4CCA
:10156000000000000000000060F1CB493A4D464009
:101570009B58C44500105A46378943409B584446FF
:1015800000C040451D5AA640E3C897470080CB44A1
:101590005B42963F14CBB3450000C5449C333640B4
:1015A0005BA3F54500406744FA7EAE4014CB33465A
:1015B000008007444A0C92405CA375450000EC4350
:1015C000D34D6A406AE7B7450000AD43B4C8763FE3
:1015D0006D1CAC450080A443CDCCBC408D3DA345E3
:1015E000008099438716993E2529AE450000734334
:1015F0006ABC8840843A384600005443A01ABB4075
:10160000022BC54400003A4339B4A04051842B4614
:1016100000002F439CC44040754293460000DC42CA
:101620008FC2A1403976AB450000C4420AD7633F60
:101630003DAEBD450000AC427B14B6405CA3754690
:101640000000AC425C8FA23F2C3A1D480000824251
:10165000713D8A3E4DD8864600007C421F856B3F17
:10166000296C044400006442D7A300406D0EA447D7
:101670000000604214AEA7405A838B4700004442EA
:1016800000005040F6041F4500003C42B81E2540B3
:1016900048E1414400003442AE47B1400A77134666
:1016A00000002C42EC51C040AE1FC44500001C425B
:1016B0001F85AB4000B0924500001842C3F51840AA
:1016C0008FED094600001442E17A543F1A8699468C
:1016D00000001442CDCC9C4033AE3D460000104289
:1016E0008FC2D53FD7113C4600000C421F85EB3F0F
:1016F0005CE73745000004428FC2753E3367DD4525
:1017000000000042EC51383E0A059F4500000042AF
:101710000AD7E33F3313C7430000E04148E19A3F53
:10172000CD74C4450000E0413333F33F663CC4450B
:101730000000D04148E192408F3D23468035C947A3
:101740003BC28D3F9B58C4450020D744423E883F52
:101750009B58444600802F448716494000000000F3
:10176000000000425C8F823F764293460000F841C1
:101770008FC23540661CAC450000C841C3F5A83F88
:10178000853DA345000090418FC2B53FE12AC54485
:1017900000002041B81EBD4052842B46000010417D
:1017A0008FC2B53FAE1FC44500001041713D8A3E57
:1017B0003D76AB4500000000000000000000000086
:1017C0000000000000000000000000000000000019
:1017D0000000000000000000000000000000000009
:1017E00000000000000000000000000000000000F9
:1017F00000000000000000000000000000000000E9
:1018000000000000000000000000000000000000D8
:1018100000000000000000000000000000000000C8
:1018200000000000000000000000000000000000B8
:1018300000000000000000000000000000000000A8
:101840000000000000000000000000000000000098
:101850000000000000000000000000000000000088
:101860000000000000000000000000000000000078
:101870000000000000000000000000000000000068
:101880000000000000000000000000000000000058
:101890000000000000000000000000000000000048
:1018A0000000000000000000000000000000000038
:1018B0000000000000000000000000000000000028
:1018C0000000000000000000000000000000000018
:1018D0000000000000000000000000000000000008
:1018E00000000000000000000000000000000000F8
:1018F00000000000000000000000000000000000E8
:1019000000000000000000000000000000000000D7
:1019100000000000000000000000000000388845C2
:10192000711BB9409B58C4450000F8422B87B24058
:101930009C58444600004041C3F548400000000068
:1019400000001041EC516840E3C897470000C040D8
:10195000295CEF3F1F29AE45000040403D0AAF40E3
:1019600076429346000000000000000000000000E6
:101970000000000000000000000000000000000067
:101980000000000000000000000000000000000057
:101990000000000000000000000000000000000047
:1019A0000000000000000000000000000000000037
:1019B0000000000000000000000000000000000027
:1019C0000000000000000000000000000000000017
:1019D0000000000000000000000000000000000007
:1019E00000000000000000000000000000000000F7
:1019F00000000000000000000000000000000000E7
:101A000000000000000000000000000000000000D6
:101A100000000000000000000000000000000000C6
:101A200000000000000000000000000000000000B6
:101A300000000000000000000000000000000000A6
:101A40000000000000000000000000000000000096
:101A50000000000000000000000000000000000086
:101A60000000000000000000000000000000000076
:101A70000000000000000000000000000000000066
:101A80000000000000000000000000000000000056
:101A90000000000000000000000000000000000046
:101AA0000000000000000000000000000000000036
:101AB0000000000000000000000000000000000026
:101AC0000000000000000000000000000000000016
:101AD0000000000000000000000000000000000006
:101AE00000000000000000000000000000000000F6
:101AF0000000000000000000000000000000114392
:101B00006ABC88409C58C4450000E04048E17A40E7
:101B10009A58444600000000000000000000000049
:101B200000000000000000000000000000000000B5
:101B300000000000000000000000000000000000A5
:101B40000000000000000000000000000000000095
:101B50000000000000000000000000000000000085
:101B60000000000000000000000000000000000075
:101B70000000000000000000000000000000000065
:101B80000000000000000000000000000000000055
:101B90000000000000000000000000000000000045
:101BA0000000000000000000000000000000000035
:101BB0000000000000000000000000000000000025
:101BC0000000000000000000000000000000000015
:101BD0000000000000000000000000000000000005
:101BE00000000000000000000000000000000000F5
:101BF00000000000000000000000000000000000E5
:101C000000000000000000000000000000000000D4
:101C100000000000000000000000000000000000C4
:101C200000000000000000000000000000000000B4
:101C300000000000000000000000000000000000A4
:101C40000000000000000000000000000000000094
:101C50000000000000000000000000000000000084
:101C60000000000000000000000000000000000074
:101C70000000000000000000000000000000000064
:101C80000000000000000000000000000000000054
:101C90000000000000000000000000000000000044
:101CA0000000000000000000000000000000000034
:101CB0000000000000000000000000000000000024
:101CC0000000000000000000000000000000000014
:101CD0000000000000000000000000000000804044
:101CE0000AD72340A458C4450000000000000000AB
:101CF00000000000000000000000000000000000E4
:101D000000000000000000000000000000000000D3
:101D100000000000000000000000000000000000C3
:101D200000000000000000000000000000000000B3
:101D300000000000000000000000000000000000A3
:101D40000000000000000000000000000000000093
:101D50000000000000000000000000000000000083
:101D60000000000000000000000000000000000073
:101D70000000000000000000000000000000000063
:101D80000000000000000000000000000000000053
:101D90000000000000000000000000000000000043
:101DA0000000000000000000000000000000000033
:101DB0000000000000000000000000000000000023
:101DC0000000000000000000000000000000000013
:101DD0000000000000000000000000000000000003
:101DE00000000000000000000000000000000000F3
:101DF00000000000000000000000000000000000E3
:101E000000000000000000000000000000000000D2
:101E100000000000000000000000000000000000C2
:101E200000000000000000000000000000000000B2
:101E300000000000000000000000000000000000A2
:101E40000000000000000000000000000000000092
:101E50000000000000000000000000000000000082
:101E60000000000000000000000000000000000072
:101E70000000000000000000000000000000000062
:101E80000000000000000000000000000000000052
:101E90000000000000000000000000000000000042
:101EA0000000000000000000000000000000000032
:101EB0000000000000000000000000000000000022
:101EC000000000000100FEFF000000000200020010
:101ED00000000000000002000200000000000000FE
:101EE00000000200000001000000000000000000EF
:101EF0000000010000000000FEFF010000000200E1
:101F000002000000000000000200010000000000CC
:101F1000010002000200FEFFFFFF000002000200BD
:101F2000FEFF0000010000000000FEFF00000000B6
:101F30000200010000000000FFFF0200020002009A
:101F40000000000000000000000000000100000090
:101F5000010002000000FFFF02000200000000007C
:101F6000FFFF00000100000000000100020001006E
:101F7000FEFF000002000000000000000000FEFF65
:101F80000200010002000000000002000200000048
:101F90000000020002000200000000000200000039
:101FA0000000FEFF0000010002000200000000002F
:101FB000000002000000FEFF000000000200000020
:101FC00000000000FFFF020001000000020000000E
:101FD0000000000002000000FFFF00000100FEFF03
:101FE00002000000020002000000010000000000EA
:101FF0000100FEFF00000100000001000000FFFFE3
:10200000000000000100000000000200FEFF0000D0
:1020100002000000FFFF02000100020000000100BA
:102020000200020000000100000002000200FEFFAA
:1020300001000100000000000000FFFF000002009E
:102040000200020000000000020001000200000087
:10205000010000000000FEFF00000200020002007C
:10206000FEFF000001000200010002000000FEFF70
:10207000000001000200000000000000010000005C
:10208000FFFF010000000000FEFFFFFF0000020054
:102090000100FEFF00000000000001000000000041
:1020A000020002000100FEFF00000200000001002B
:1020B000FEFF01000000020001000000000001001E
:1020C000FEFF0000FFFF0000010000000000FEFF17
:1020D00001000000000000000100000000000000FE
:1020E00000000000000001000200000000000000ED
:1020F000FEFF02000200FFFFFFFF010000000000E2
:10210000000001000100000000000000FFFF0100CE
:10211000020002000200FFFFFFFF020002000000B9
:1021200000000300020002000200FFFF00000200A6
:10213000020000F727C833332EC380BCB34766665E
:102140000E41000C4EC6CDCCCCBF0040B3456666F8
:1021500046C000200EC5CDCC4CBE004074440000EB
:1021600000BF00E00045CDCC4C3E00C05FC4000085
:10217000003F0040B2449A9959C000005842CDCC6B
:10218000CCBD00003244CDCCCC3D0000E0C000000E
:102190000000004001C49A99993F000060439A9959
:1021A00019BF0000C1C3CDCCCCBE00004843000025
:1021B0000000008096C30000000000000143CDCC69
:1021C000CCBD00005943000000BF0000BEC29A9978
:1021D000993E00001EC30000000000000000000047
:1021E000000000000143CDCCCC3D00008CC20000BB
:1021F00000000000F64200000000000054C2000091
:10220000000000007C420000000000000000000010
:10221000000000007C42CDCCCC3D000004C2000098
:10222000000000006CC2000000000000D04100006F
:102230000000000068C2CDCCCCBD00000042000010
:10224000000000004CC2000000000000D841000067
:1022500000000000404200000000000000000000FC
:10226000000000003842000000000000C0C1000073
:102270000000000018C200000000000080410000C3
:1022800000000000F8C10000000000005041000004
:1022900000000000E8410000000000000000000015
:1022A00000000000E84100000000000040C1000004
:1022B00000000000D041000000000000000000000D
:1022C00000000000B0C1000000000000000000009D
:1022D00000000000A84100000000000020C1000034
:1022E000000000008841CDCCCCBD00000000000003
:1022F00000000000804100000000000000C100005C
:102300000000000080C1CDCCCC3D0000E0400000CA
:102310000000000070C1000000000000104100003B
:102320000000000050C1000000000000E04000007C
:102330000000000040C1000000000000C04000009C
:10234000000000003041000000000000000000001C
:102350000000000020C1000000000000A0400000BC
:102360000000000000C1000000000000404000002C
:1023700000000000E04000000000000040C000003D
:1023800000000000E0C000000000000000000000AD
:1023900000000000E0C0000000000000404000001D
:1023A00000000000E0C0000000000000404000000D
:1023B00000000000C040000000000000000000001D
:1023C00000000000C04000000000000040C000000D
:1023D00000000000C04000000000000040C00000FD
:1023E00000000000C0C000000000000040400000ED
:1023F00000000000C0C000000000000040400000DD
:1024000000000000A04000000000000000000000EC
:1024100000000000A0C000000000000040400000DC
:1024200000000000A0C000000000000040400000CC
:1024300000000000A0C000000000000040400000BC
:1024400000000000804000000000000000000000CC
:1024500000000000804000000000000000000000BC
:1024600000000000804000000000000000000000AC
:102470000000000080C0000000000000000000001C
:102480000000000080C0000000000000000000000C
:102490000000000080C000000000000000000000FC
:1024A00000000000404000000000000000000000AC
:1024B0000000000040C0000000000000000000001C
:1024C0000000000040C0000000000000000000000C
:1024D0000000000040C000000000000000000000FC
:1024E0000000000040C000000000000000000000EC
:1024F0000000000040C000000000000000000000DC
:102500000000000040C000000000000000000000CB
:102510000000000040C000000000000000000000BB
:10252000000000407A10F35A00A0724E1809001003
:10253000A5D4E80000E87648170000E40B54020038
:1025400000CA9A3B000000E1F50500008096980063
:10255000000040420F000000A0860100000010278C
:1025600000000000E803000000006400000000001C
:102570000A00000000000100000000002C76D8884E
:10258000DC674F0823DFC1DFAE59E1B1B796E5E361
:10259000E453C63AE651997696E8E6C28426EB897A
:1025A0008C9B62ED407C6FFCEFBC9C9F40F2BAA517
:1025B0006FA5F490055A2AF75C936B6CF9676DC1AF
:1025C0001BFCE0E40D47FEF520E6B500D0ED902EB3
:1025D0000300943577050080841E080000204E0A11
:1025E000000000C80C333333330F986E128311414F
:1025F000EF8D2114893BE65516CFFEE6DB18D1841A
:102600004B381BF77C1D901DA4BBE4242032847240
:102610005E228100C9F124ECA1E53D276364696E67
:102620006F70737578585B00494E46494E4954594E
:102630004E414ECDCCCC3D0AD7233C17B7D138778D
:10264000CC2B329595E6241FB14F0A0000204100A3
:1026500000C84200401C4620BCBE4CCA1B0E5AAEED
:10266000C59D740011241FBECFEFD1E2DEBFCDBFE8
:1026700012E1A0E0B2E0E6E8FEED00E00BBF02C030
:1026800007900D92A23AB107D9F717E1A2EAB2E199
:1026900001C01D92A533B107E1F70E94F5530C94D8
:1026A000416F0C9400009093A3128093A21208959E
:1026B0001F93182F8A3031F4E091A212F091A312E7
:1026C0008DE00995E091A212F091A312812F099556
:1026D0001F910895CF93DF93EC01009721F406C07A
:1026E00021960E94581388818823D1F7DF91CF91DA
:1026F0000895EF92FF920F931F93CF93DF938C0176
:102700007A010097E9F020E030E02617370738F427
:10271000F80181918F012F5F3F4F8823B1F7C0E00F
:10272000D0E00BC0F8018081882319F00F5F1F4FA4
:1027300001C080E20E9458132196CE15DF0590F368
:10274000DF91CF911F910F91FF90EF900895CF935C
:10275000DF93EC01009719F407C00E945813FE01A3
:10276000219684918823C9F7DF91CF9108958AE05B
:102770000E9458130895E82FF0E0EF70F070E85EC3
:10278000FD4FE4918E2F0E94581308951F93182F28
:1027900082958F700E94BB13812F0E94BB131F91E3
:1027A00008951F93182F892F0E94C613812F0E940E
:1027B000C6131F910895EF92FF920F931F937B0111
:1027C0008C01C801AA27BB270E94D113C7010E9410
:1027D000D1131F910F91FF90EF9008952F923F9288
:1027E0004F925F926F927F928F929F92AF92BF9221
:1027F000CF92DF92EF92FF920F931F93DF93CF93CD
:10280000CDB7DEB7A3970FB6F894DEBF0FBECDBF2E
:102810006AA3242E2BA337014801442351F017FF4C
:1028200008C0EE24FF248701E618F70808091909F3
:1028300002C0840173012AA1215090E0211091E08F
:10284000291B29A318A2A82EBB24CC24DD24C8014F
:10285000B701A60195010E946765FB01EF70F0705A
:10286000E85EFD4F64916F8FC801B701A601950125
:102870000E946765C901DA017C018D019EE1492E44
:10288000512C4C0E5D1E39A025C0E114F104010548
:102890001105C9F0C801B701A60195010E9467653D
:1028A000FB01EF70F070E85EFD4F6491F201608310
:1028B000C801B701A60195010E946765C901DA0147
:1028C0007C018D0103C02BA1F20120833A9408946E
:1028D000410851083320C9F6CE014F968C01E9A179
:1028E0000E1B11092220F1F097FE05C08DE2F801C0
:1028F00082938F0117C0C80101976114710481048C
:10290000910419F08C018BE202C08C0180E2F80185
:10291000808308C0F80181918F010E945813FAA1A9
:10292000F150FAA32AA12223A9F7A3960FB6F8948F
:10293000DEBF0FBECDBFCF91DF911F910F91FF90F2
:10294000EF90DF90CF90BF90AF909F908F907F904F
:102950006F905F904F903F902F9008957F928F924D
:102960009F92AF92BF92CF92DF92EF92FF920F931E
:102970001F93DF93CF93CDB7DEB77888C988DA8805
:1029800053E1E52EF12CEC0EFD1E14C0882381F4DA
:1029900080E090E0CF91DF911F910F91FF90EF9039
:1029A000DF90CF90BF90AF909F908F907F900895D1
:1029B0000E94581396012F5F3F4F772021F0F601B8
:1029C0006901849103C0F601808169018532F1F6C5
:1029D0002F5F3F4F772021F0F6016901849103C0FA
:1029E000F60180816901843629F0883781F08336C9
:1029F000F9F606C000E117E24AE0A42EB12C0CC0A3
:102A0000F701808122E030E0E20EF31ED1CF00E03A
:102A100010E130E1A32EB12C22E0822E912C8E0CFD
:102A20009F1CF701E080F1808436B1F4F7FE11C0FD
:102A3000F094E194F108F3948DE20E94581309C0D8
:102A4000C8016AE070E00E9440658B016230710548
:102A500018F0E016F106A0F3C701B8010E94406526
:102A6000862F0E94BB13C701B8010E9440657C01FC
:102A7000C801B5010E9440658B016115710561F7C0
:102A8000740198CF2DB73EB7275030400FB6F89459
:102A90003EBF0FBE2DBFEDB7FEB7319691E0ADB78B
:102AA000BEB711969C9329E232E03283218383835F
:102AB0001482658316820E94AE142DB73EB7295F3B
:102AC0003F4F0FB6F8943EBF0FBE2DBF0895882329
:102AD00049F000D00F9281E0EDB7FEB7818389E322
:102AE00092E008C000D00F9281E0EDB7FEB781837D
:102AF00082E392E0938382830E94AE140F900F9042
:102B00000F90089500D000D00F92EDB7FEB7319628
:102B100091E0ADB7BEB711969C9320E432E03283CA
:102B20002183838314820E94AE140F900F900F9024
:102B30000F900F90089586E492E00E94A7130895E5
:102B40008BE492E00E94A71308954F925F926F92D8
:102B50007F928F929F92AF92BF92CF92DF92EF922D
:102B6000FF920F931F93CF93DF937C012B018BE98F
:102B700092E00E94A71382E592E00E94A7138FE0E3
:102B800090E0E80EF91E370194E0769467949A95E8
:102B9000E1F7E1EFFFEFEE0EFF1E882499244AC013
:102BA000540184E0AA0CBB1C8A95E1F7C5010E9480
:102BB000D11380E20E9458136201CA0CDB1C86010B
:102BC000C0E0D0E0CE018A0D9B1D8E159F0540F41C
:102BD000F80180810E94C61380E20E94581304C04D
:102BE0008EE492E00E94A71321960F5F1F4FC03121
:102BF000D10541F780E20E945813C0E0D0E0CE0139
:102C00008A0D9B1D8E159F0530F4F6018081803260
:102C100018F48EE201C080E20E94581321960894B5
:102C2000C11CD11CC031D10551F70E94B7130894C3
:102C3000811C911C8614970408F4B2CFDF91CF91C8
:102C40001F910F91FF90EF90DF90CF90BF90AF90CA
:102C50009F908F907F906F905F904F900895FC01B0
:102C60008FB7F894718360835383428317821682EF
:102C7000158214828FBF0895DC014FB7F894149623
:102C80008D919C911597892B11F4E0E025C0169643
:102C90008D919C911797ED91FC911197E80FF91F79
:102CA000E081019617969C938E93169712962D911C
:102CB0003C9113978217930730F0821B930B179662
:102CC0009C938E93169714968D919C9115970197CE
:102CD00015969C938E9314974FBF8E2F0895FC01E9
:102CE0004FB7F8948481958168177907B0F486818D
:102CF0009781860F971F978386832281338182175E
:102D0000930720F0821B930B9783868384819581A0
:102D1000861B970B9583848302C0158214824FBF54
:102D20000895FC01CB012FB7F8942FBF268137817E
:102D300062817381820F931F0E9440650190F08130
:102D4000E02DE80FF91F808108951F93CF93DF9343
:102D5000EC01162F4FB7F8942C813D816A817B815D
:102D60002617370798F48E819F81820F931F0E9448
:102D70004065E881F981E80FF91F10838C819D81FE
:102D800001969D838C834FBF8FEF02C04FBF80E0C1
:102D9000DF91CF911F910895FC018FB7F8948FBFF9
:102DA0002281338184819581281B390BC9010895C3
:102DB000FC018FB7F894158214828FBF089587E6BF
:102DC0008093C40088E18093C10008958FEC8093C4
:102DD000CC0088E18093C90008951F93182F873095
:102DE00049F4609131177091321780E092E00E94AF
:102DF000BB670BC08A3019F48DE00E94ED168091FC
:102E0000C80085FFFCCF1093CE0080E090E01F91BA
:102E10000895EF92FF920F931F93CF93DF937C015E
:102E20008091A4129091A512892B09F09FC006EA07
:102E300012E18091C80087FFFCCF8091C80084FF19
:102E400003C02EEF3FEFA6C08091C80083FDA0C055
:102E50009091CE009D3011F09A3069F48AE0F8012B
:102E60008083B7010E94ED1686EA92E19093A51245
:102E70008093A4127BC0993009F490E2892F80528C
:102E80008F3510F0903A70F0F2E1053F1F0711F412
:102E900087E004C0F80191938F01892FB7010E9448
:102EA000ED16C7CF923139F1933138F4933009F4EC
:102EB0006FC0983009F0BDCF09C0973109F44BC0FD
:102EC0009F3721F0953109F0B4CF32C0F2E1063AD4
:102ED0001F0709F008F4ADCF88E0B7010E94ED1696
:102EE00080E2B7010E94ED1688E0B7010E94ED165E
:102EF000015010409ECF8DE0B7010E94ED16C6EA4A
:102F0000D2E104C08991B7010E94ED16C017D10724
:102F1000C8F38FCF88E0B7010E94ED1680E2B701B9
:102F20000E94ED1688E0B7010E94ED160150104096
:102F300082E1063A180709F068F77BCF88E0B7010D
:102F40000E94ED1680E2B7010E94ED1688E0B701FD
:102F50000E94ED168E01E2E1063A1E0709F008F420
:102F600068CFE8018A91803249F763CFE091A412DB
:102F7000F091A5128191F093A512E093A4128A30EA
:102F800021F41092A5121092A412282F30E002C052
:102F90002FEF3FEFC901DF91CF911F910F91FF906C
:102FA000EF9008951F93182F873049F460913117DF
:102FB0007091321780E092E00E94BB670BC08A30AC
:102FC00019F48DE00E94D2178091C00085FFFCCFDC
:102FD0001093C60080E090E01F910895EF92FF9259
:102FE0000F931F93CF93DF937C018091F612909102
:102FF000F712892B09F09FC008EF12E18091C00001
:1030000087FFFCCF8091C00084FF03C02EEF3FEF0D
:10301000A6C08091C00083FDA0C09091C6009D30E5
:1030200011F09A3069F48AE0F8018083B7010E94B8
:10303000D21788EF92E19093F7128093F6127BC03B
:10304000993009F490E2892F80528F3510F0903A30
:1030500070F0F3E107341F0711F487E004C0F801B2
:1030600091938F01892FB7010E94D217C7CF923158
:1030700039F1933138F4933009F46FC0983009F086
:10308000BDCF09C0973109F44BC09F3721F095316E
:1030900009F0B4CF32C0F2E1083F1F0709F008F48D
:1030A000ADCF88E0B7010E94D21780E2B7010E943D
:1030B000D21788E0B7010E94D217015010409ECF6E
:1030C0008DE0B7010E94D217C8EFD2E104C0899108
:1030D000B7010E94D217C017D107C8F38FCF88E07D
:1030E000B7010E94D21780E2B7010E94D21788E090
:1030F000B7010E94D2170150104082E1083F180723
:1031000009F068F77BCF88E0B7010E94D21780E210
:10311000B7010E94D21788E0B7010E94D2178E0132
:10312000E2E1083F1E0709F008F468CFE8018A9140
:10313000803249F763CFE091F612F091F712819156
:10314000F093F712E093F6128A3021F41092F712FE
:103150001092F612282F30E002C02FEF3FEFC90186
:10316000DF91CF911F910F91FF90EF90089527E08D
:1031700030E0482F50E0CA01022E02C09595879595
:103180000A94E2F780FF02C0159A01C0159800006A
:10319000000000000000000000000000000000002F
:1031A000000080910501806280930501000000000D
:1031B000000000000000000000000000000000000F
:1031C000809105018F7D80930501215030408FEF64
:1031D0002F3F380709F0CFCF159A0D980000000057
:1031E00000000000000000000000000000000000DF
:1031F0008091050180628093050120B100000000EC
:1032000000000000000000000000000000000000BE
:10321000809105018F7D809305010D9A00000000CB
:10322000000000000000000000000000000000009E
:1032300022952695277081E0282730E02170307094
:10324000C901089527E030E0482F50E0CA01022E5E
:1032500002C0959587950A94E2F780FF04C080919B
:103260000501806403C0809105018F7B8093050177
:10327000000000000000000000000000000000004E
:10328000000000008091050180628093050100002C
:10329000000000000000000000000000000000002E
:1032A0000000809105018F7D809305012150304001
:1032B0008FEF2F3F380709F0C9CF80910501806457
:1032C00080930501809104018F7B809304010000AD
:1032D00000000000000000000000000000000000EE
:1032E0000000809105018062809305012091030117
:1032F00000000000000000000000000000000000CE
:1033000000000000809105018F7D80930501809170
:1033100004018064809304010000000000000000AC
:10332000000000000000000000000000229526952B
:103330002695237081E0282730E021703070C90184
:103340000895BC01159A0D9827E030E040E0000098
:10335000000000000000000000000000000000006D
:10336000000080910501806280930501440F05995A
:1033700041600000000000000000000000000000AC
:10338000000000000000809105018F7D8093050101
:10339000215030408FEF2F3F3807C9F60D9A672B29
:1033A00011F0159A01C015980000000000000000FF
:1033B00000000000000000000000000080910501F6
:1033C0008062809305010000000000000000000002
:1033D00000000000000000000000809105018F7DCA
:1033E00080930501159A842F0895BC0180910501F1
:1033F000806480930501809104018F7B8093040198
:1034000027E030E040E00000000000000000000085
:1034100000000000000000000000809105018062B3
:103420008093050180910301440F86FD41600000F7
:10343000000000000000000000000000000000008C
:103440000000809105018F7D80930501215030405F
:103450008FEF2F3F3807B9F6809104018064809385
:103460000401672B21F080910501806403C08091E5
:1034700005018F7B80930501000000000000000023
:103480000000000000000000000000008091050125
:103490008062809305010000000000000000000031
:1034A00000000000000000000000809105018F7DF9
:1034B0008093050180910501806480930501842F2C
:1034C00008950D9AE4E0F1E0808180628083159A8E
:1034D000E5E0F1E08081806280830895E4E0F1E03E
:1034E000808180648083808180628083E5E0F1E078
:1034F00080818064808380818062808308950F93BF
:103500001F93CF93DF93162F042FE9011598000026
:103510000000000000000000909105019F7D909345
:1035200005010E94B718812F0E94B71804C0899125
:103530000E94B71801500023D1F715980000000031
:10354000000000000000000000000000000000007B
:103550008091050180628093050100000000000059
:1035600000000000159A00000000000000000000AC
:1035700000000000000000000000DF91CF911F91CB
:103580000F9108950F931F93CF93DF93162F042F5E
:10359000E901909105019F7B9093050100000000D7
:1035A000000000000000909105019F7D90930501AF
:1035B0000E942219812F0E94221904C089910E9421
:1035C000221901500023D1F7809105018F7B809350
:1035D00005010000000000000000000000000000E5
:1035E00000000000000080910501806280930501C9
:1035F00000000000000000000000809105018064D0
:1036000080930501000000000000000000000000A1
:103610000000000000000000DF91CF911F910F918A
:103620000895CF92DF92EF92FF920F931F93CF9363
:10363000DF93082F162FD42EF22EE32E15980000BC
:103640000000000000000000809105018F7D809344
:103650000501802F0E94B718812F0E94B718000023
:10366000000000000000000000000000000000005A
:10367000000080910501806280930501159800008B
:103680000000000000000000809105018F7D809304
:103690000501802F81600E94B7182F2D3E2DC90192
:1036A000EC0100E010E0ED2CFF2467010894C11C40
:1036B000D11C0AC080E090E0E016F10611F481E030
:1036C00090E00E94A11989930F5F1F4F0C151D05F3
:1036D00089F71598000000000000000000000000BD
:1036E00000000000000000008091050180628093CE
:1036F000050100000000000000000000159A000015
:1037000000000000000000000000000000000000B9
:103710000000DF91CF911F910F91FF90EF90DF900C
:10372000CF900895CF92DF92EF92FF920F931F9365
:10373000CF93DF93082F162FD42EF22EE32E8091F5
:1037400005018F7B80930501000000000000000050
:103750000000809105018F7D80930501802F0E94DC
:103760002219812F0E942219000000000000000091
:103770000000000000000000000000008091050132
:10378000806280930501809105018F7B8093050104
:1037900000000000000000000000809105018F7D06
:1037A00080930501802F81600E9422192F2D3E2DCC
:1037B000C901EC0100E010E0ED2CFF246701089442
:1037C000C11CD11C0AC080E090E0E016F10611F4A3
:1037D00081E090E00E94F51989930F5F1F4F0C154F
:1037E0001D0589F7809105018F7B809305010000FD
:1037F00000000000000000000000000000000000C9
:1038000000008091050180628093050100000000A6
:103810000000000000008091050180648093050194
:103820000000000000000000000000000000000098
:1038300000000000DF91CF911F910F91FF90EF905A
:10384000DF90CF900895CF93DF93EC01DC01AE5869
:10385000BF4FC258DE4FB983A883CE57D14021E075
:1038600030E040E050E020C04115510521F04130EA
:103870005105B9F406C08C32B1F41C9241E050E01D
:1038800012C021543F4FF901EE0FFF1FEC0FFD1F37
:10389000B183A0832E5B30408C918C3211F41C924A
:1038A00002C040E050E011968C91882319F0283135
:1038B0003105D4F2C901DF91CF910895CF93DF9301
:1038C000FC01EB018081882329F460E070E080E056
:1038D00090E00EC0CF010E94AF6528812D3441F0E9
:1038E000263431F428E439EF41E550E40E942063A6
:1038F000DF91CF910895AF92BF92CF92DF92EF9276
:10390000FF920F931F93CF93DF93FC01DB0100978E
:1039100019F06115710511F40E94AA658081882350
:1039200021F4E0E070E060E04CC06C91662321F48B
:10393000E0E070E080E045C0653419F0CFEFDFEFE4
:1039400002C0C1E0D0E0CF010E94AF655B016C0115
:1039500020E030E048EC52E40E94ED600E945561A6
:10396000882777FD8095982F0E9488617B018C01C4
:1039700020E030E048EC52EC0E9420639B01AC0157
:10398000C601B5010E94096020E030E040E752E442
:103990000E94ED609B01AC01C801B7010E94096063
:1039A0007B018C01BE01882777FD8095982F0E94AE
:1039B00088619B01AC01C801B7010E942063E62F1A
:1039C000692F2E2F372F482F562FB901CA01DF91AB
:1039D000CF911F910F91FF90EF90DF90CF90BF900C
:1039E000AF900895AF92BF92CF92DF92EF92FF9285
:1039F0000F931F93CF93DF93FC01DB01009719F026
:103A00006115710511F40E94AA658081882321F453
:103A1000E0E070E060E04CC06C91662321F4E0E0EF
:103A200070E080E045C06E3419F0CFEFDFEF02C0E8
:103A3000C1E0D0E0CF010E94AF655B016C0120E0E6
:103A400030E048EC52E40E94ED600E945561882706
:103A500077FD8095982F0E9488617B018C0120E082
:103A600030E048EC52EC0E9420639B01AC01C6019F
:103A7000B5010E94096020E030E040E752E40E9476
:103A8000ED609B01AC01C801B7010E9409607B0198
:103A90008C01BE01882777FD8095982F0E94886150
:103AA0009B01AC01C801B7010E942063E62F692F7A
:103AB0002E2F372F482F562FB901CA01DF91CF91F2
:103AC0001F910F91FF90EF90DF90CF90BF90AF903C
:103AD0000895EF92FF920F931F93CF93DF93EC0122
:103AE0007B01DB011C960D911C911D9701151105A1
:103AF00009F475C0C058DE4F899199910E94B36551
:103B0000AA2797FDA095BA2FF80180839183A283FD
:103B1000B383E881F981C258D1408081D8011496DD
:103B20008C93FE01EC57FE4FCA57DE4F68817981B6
:103B3000C658D140808191810E94F21CF8016583B2
:103B4000768387839087FE01E857FE4FC657DE4F86
:103B500068817981CA58D140808191810E947B1C03
:103B6000D80119966D937D938D939C931C97FE01BC
:103B7000E457FE4F808191810E94AF65F80165870F
:103B800076878787908BFE01E257FE4F8081918177
:103B90000E94AF65D80151966D937D938D939C9350
:103BA0005497FE01E057FE4F808191810E94B365DA
:103BB000AA2797FDA095BA2FF801858B968BA78B26
:103BC000B08FFE01EE56FE4F808191810E94AF655D
:103BD000D80159966D937D938D939C935C97D701F3
:103BE0001A96ED91FC911B97309749F0C453DD4F25
:103BF00048815981CC5CD240CE01B801099582E060
:103C000090E0DF91CF911F910F91FF90EF90089579
:103C1000EF92FF920F931F93CF93DF93EC017B0101
:103C2000DB011C960D911C911D970115110509F4DE
:103C300091C0FC01EE57FE4FCC57DE4F6881798171
:103C4000C458D140808191810E94F21CF8016083A8
:103C5000718382839383FE01EA57FE4FC857DE4F7C
:103C600068817981C858D140808191810E947B1CF4
:103C7000D80114966D937D938D939C931797FE01B5
:103C8000E057FE4FCE56DE4F688179818081918169
:103C90000E945E1CF801608771878287938700D03D
:103CA00000D000D0EDB7FEB7319662978881998138
:103CB000C058D140ADB7BEB712969C938E93119762
:103CC00088E092E093838283045F1F4F158304830F
:103CD0000C5010400E946F68EDB7FEB736960FB6D5
:103CE000F894FEBF0FBEEDBFFE01E457FE4F80818A
:103CF00091810E94B365D80151969C938E93509701
:103D0000FE01E657FE4F808191810E94B365F80164
:103D1000938B828BFE01E257FE4F808191810E943E
:103D2000AF65D80154966D937D938D939C9357976F
:103D3000FE01EC56FE4FCA56DE4F68817981C659A6
:103D4000D140808191810E945E1CF801608F718F4B
:103D5000828F938FD7011A96ED91FC911B97309724
:103D600049F0C453DD4F48815981CC5CD240CE012B
:103D7000B801099581E090E0DF91CF911F910F91FB
:103D8000FF90EF9008956F927F928F929F92AF92E3
:103D9000BF92CF92DF92EF92FF920F931F93CF9338
:103DA000DF93EC01BC016E587F4F84539E4F40E07F
:103DB00051E00E940867CE010E94231CC255DE4FCD
:103DC00099838883CE5AD14076E7672E71E0772EAB
:103DD0006C0E7D1E5E0100E010E060E7862E912CE7
:103DE0008C0E9D1E38C0C801880F991F7C0143E0CE
:103DF000EE0CFF1C4A95E1F7E81AF90AEC0EFD1EDD
:103E0000E114F10411F40E94AA65C801880F991FFA
:103E1000BC0123E0660F771F2A95E1F7681B790B39
:103E20006C0F7D1FC30145E050E00E94FA660097C9
:103E300061F4D5011896ED91FC911997CE01B70167
:103E400009956C011816190664F00F5F1F4FEEE01C
:103E5000F0E0AE0EBF1ED4018D919C91081719079A
:103E600014F2C601DF91CF911F910F91FF90EF9057
:103E7000DF90CF90BF90AF909F908F907F906F908A
:103E80000895AF92BF92CF92DF92FF920F931F934C
:103E9000CF93DF93EC01F62EFC01EE58FE4F8081AC
:103EA00091818F3F910540F0CC58DE4F19821882E6
:103EB000C457D14011821082F2E7AF2EF1E0BF2E3D
:103EC000AC0EBD1EF50180819181FE01E80FF91F46
:103ED000EE58FF4FF0828C010F5F1F4FF5011183E9
:103EE0000083E4E7CE2EE1E0DE2ECC0EDD1EF601EF
:103EF000808191818330910509F45DC08430910502
:103F000054F48130910529F1823091050CF03EC0C6
:103F1000892B69F0FEC08530910509F49CC085307D
:103F200091050CF463C0069709F0F3C09EC0F4E25B
:103F3000FF1659F481E090E0F60191838083C35825
:103F4000DE4F1882FE011292F6C0FE01EC54FE4FC5
:103F5000CEC08F2D90E00E94A966892B99F0FE01BA
:103F6000E00FF11FEC58FE4FF082FE01E358FE4FC8
:103F700080818F258083063011050CF4DCC082E03F
:103F800090E06FC0FE01E054FE4FB1C0FAE2FF16B0
:103F900019F483E090E065C0FE01E358FE4F8DE028
:103FA000F81629F4C458DE4F1882108258C0808158
:103FB0008F258083C0C08F2D90E00E94BD66892B25
:103FC000A1F1F6E4FF1588F184E090E0F601918319
:103FD0008083F9E3FF1510F06F2D02C06F2D67533A
:103FE0006295607FC458DE4F6883A5C08F2D90E036
:103FF0000E94BD66892BC9F086E48F15B0F085E07C
:1040000090E0F60191838083C458DE4F8881CC57BD
:10401000D140F9E3FF1518F06F2D605302C06F2DEA
:104020006753C458DE4F680FDFCFFE01EC53FE4FDD
:1040300080819181A281B3810196A11DB11D8083F0
:104040009183A283B383CC58DE4F19821882FE017C
:104050001292129270C08DE0F81609F045C086E009
:1040600090E0F6019183808366C0FAE0FF16E1F5E7
:104070000C0F1D1F0E581F4FF8011082FE01E35850
:10408000FE4FC458DE4F90818881CC57D14098179D
:1040900099F4CE010E94C31E9C01FE01E055FE4F23
:1040A00080819181A281B3810196A11DB11D808380
:1040B0009183A283B38310C0FE01EC53FE4F808135
:1040C0009181A281B3810196A11DB11D808391834D
:1040D000A283B38320E030E0CC58DE4F19821882EF
:1040E000FE011292129229C0FE01E853FE4F808118
:1040F0009181A281B3810196A11DB11D808391831D
:10410000A283B383F60111821082F501118210821D
:1041100012C0FE01E454FE4F80819181A281B381DF
:104120000196A11DB11D80839183A283B383CC58D6
:10413000DE4F1982188220E030E0C901DF91CF9173
:104140001F910F91FF90DF90CF90BF90AF90089597
:104150008F929F92AF92BF92CF92DF92EF92FF9297
:104160000F931F93CF93DF934C015B016A01FA0118
:10417000E080F1808701C0E0D0E00DC00150104028
:10418000F501EC0FFD1FC40160810E94411F9C01DD
:10419000009731F42196CE15DF0584F320E030E05E
:1041A000F60111830083C901DF91CF911F910F9117
:1041B000FF90EF90DF90CF90BF90AF909F908F9047
:1041C0000895AF92BF92CF92DF92EF92FF920F933A
:1041D0001F93CF93DF937C016A015901009711F47B
:1041E0000E94AA65FC01E059FF4FC081D181C8300F
:1041F000D1051CF02FEF3FEF57C02196D183C0832C
:104200002197CE01880F991F9C01A3E0220F331F35
:10421000AA95E1F7281B390B2E0D3F1D8EE0D90121
:104220001D928A95E9F7CE01880F991F9C01E3E062
:10423000220F331FEA95E1F7281B390BC701820FC4
:10424000931F45E050E00E940867CE01880F991F38
:10425000FC0143E0EE0FFF1F4A95E1F7E81BF90B65
:10426000EE0DFF1DD186C086CE01880F991FFC017F
:1042700023E0EE0FFF1F2A95E1F7E81BF90BEE0D87
:10428000FF1DB386A286CE01880F991FFC01A3E013
:10429000EE0FFF1FAA95E1F7E81BF90BEE0DFF1DCE
:1042A0001587048720E030E0C901DF91CF911F918D
:1042B0000F91FF90EF90DF90CF90BF90AF90089557
:1042C000FC01009711F40E94AA658EEC92E0DF01D8
:1042D0009C011D9221503040E1F7E453FD4F718362
:1042E000608380E090E008951092B90088E48093A4
:1042F000B8000895982F84EA8093BC008091BC0098
:1043000087FFFCCF8091B900887F883021F0803111
:1043100011F081E008959093BB0084E88093BC0085
:104320008091BC0087FFFCCF9091B900987F9831B5
:1043300011F480E0089580E0903409F081E0089560
:10434000982F44EA34E824E94093BC008091BC00F3
:1043500087FFFCCF8091B900887F883011F08031D1
:1043600099F79093BB003093BC008091BC0087FF0D
:10437000FCCF8091B900887F803211F0883539F404
:104380002093BC008091BC0084FDFCCFDDCF08955C
:104390000E947A21089584E98093BC008091BC003A
:1043A00084FDFCCF08958093BB0084E88093BC001B
:1043B0008091BC0087FFFCCF8091B90090E0887F9E
:1043C000883209F091E0892F089584EC8093BC0035
:1043D0008091BC0087FFFCCF8091BB00089584E8EA
:1043E0008093BC008091BC0087FFFCCF8091BB0014
:1043F000089520EE3EE245E652E40E9420630895CF
:1044000025E33AEF4EE85CE30E9420630895EF92C3
:10441000FF920F931F937B018C0120E030E040EA74
:1044200051EC0E94E66088234CF4C801B70120E0FB
:1044300030E044EB54E40E94096017C0C801B701A2
:1044400020E030E040EA51E40E94156318162CF099
:10445000EE2D7F2D802F612F0AC0C801B70120E00B
:1044600030E044EB54E40E940860E62F692F2E2FC1
:10447000372F482F562FB901CA011F910F91FF9076
:10448000EF9008952F923F924F925F926F927F929A
:104490008F929F92AF92BF92CF92DF92EF92FF9254
:1044A0000F931F93DF93CF93CDB7DEB719012A0186
:1044B0006D887E888F88988CA40193010E94206368
:1044C000A20191010E940960A40193010E9420634E
:1044D000A80197010E940960A40193010E94206332
:1044E000A60195010E940960CF91DF911F910F9164
:1044F000FF90EF90DF90CF90BF90AF909F908F9004
:104500007F906F905F904F903F902F9008958F9283
:104510009F92AF92BF92CF92DF92EF92FF920F9352
:104520001F93CF93DF93EC01888199818053984F3B
:1045300081549F4118F021E030E0FAC08A819B81CC
:1045400001970C9718F022E030E0F2C08C819D8139
:1045500001974F9718F023E030E0EAC08E809F80EB
:1045600089E18816910418F024E030E0E1C0A884C5
:10457000B9842CE3A216B10408F0CCC0CA84DB8451
:104580008CE3C816D10408F0C8C0E8A0F9A00AA1BD
:104590001BA1C801B70120E030E040E050E00E94DC
:1045A000E66087FDBDC0C801B70120E030E44CE9FA
:1045B00055E40E94156318160CF4B2C0ECA0FDA0DF
:1045C0000EA11FA1C801B70120E030E848E853EC74
:1045D0000E94E66018160CF0A6C0C801B70120E0E2
:1045E00030E84BEB55E40E94156318160CF49BC0A1
:1045F00028E18216910441F41A141B040CF48AC0B9
:104600001C141D040CF489C06C857D858E859F85E6
:104610009F7720E030E04AEF55E40E9415631816BA
:104620001CF427E030E084C0688979898A899B89F5
:104630009F7720E030E040E951E40E9415631816AE
:104640001CF428E030E074C06C897D898E899F89D4
:104650009F7720E030E044E353E40E94156318168E
:104660001CF429E030E064C0688D798D8A8D9B8DC3
:104670009F7720E030E044EB52E40E941563181667
:104680001CF42AE030E054C068A979A98AA99BA942
:104690009F7720E030E040EA50E40E94156318164E
:1046A0001CF420E130E044C06C8D7D8D8E8D9F8D9B
:1046B00020E43DE546EC5AEC0E94E66088231CF4B9
:1046C0002BE030E035C08CA99DA98130910511F017
:1046D000039761F568A579A58AA59BA59F7720E03A
:1046E00030E044EB53E40E94156318161CF42EE0EE
:1046F00030E01EC06CA57DA58EA59FA59F7720E00C
:1047000030E044EB53E40E94156318167CF42FE06C
:1047100030E00EC025E030E00BC026E030E008C0FD
:104720002CE030E005C02DE030E002C020E030E0B9
:10473000C901DF91CF911F910F91FF90EF90DF9012
:10474000CF90BF90AF909F908F90089524E631EA6C
:1047500045E15AE40E94086020E03DEA4EE057E45B
:104760000E94ED600895EF92FF920F931F937B01DB
:104770008C01CA01B90120E030EC48EA57E40E94FC
:10478000ED609B01AC01C801B7010E9409601F9157
:104790000F91FF90EF90089524E631EA45E15AE445
:1047A0000E94086020E03DEA4EE057E40E94ED6080
:1047B000089520E030E040E251E40E94ED60089569
:1047C000EF92FF920F931F9320E030E044E353E415
:1047D0000E9409607B018C0120E030E044EB53E44F
:1047E0000E941563882354F0C801B70120E030E02F
:1047F00044EB53E40E9408607B018C01B701C801BF
:104800001F910F91FF90EF90089590580895EF92A7
:10481000FF920F931F937B018C0121EB37E141EB5A
:1048200056E30E94206325EE35EE4AEF5AE30E94DC
:104830000860A80197010E94206324E63AE649ED4A
:1048400058E40E940960A80197010E94206329EDA5
:104850003CEE44E953E40E9409601F910F91FF90E0
:10486000EF900895EF92FF920F931F937B018C01BD
:104870002BE332EB4FE556EB0E94206324E336E155
:1048800048E259E30E940860A80197010E94206352
:104890002DE03FE94CE057E40E940960A801970130
:1048A0000E9420632CE833EC42EB53E40E94096041
:1048B0001F910F91FF90EF900895EF92FF920F9349
:1048C0001F937B018C012DE731E245E957E30E94FC
:1048D000206323EB3EE74EE05CE30E940960A80101
:1048E00097010E9420632CED31E049EE58E40E94CC
:1048F0000960A80197010E94206326E836EF46E090
:1049000053E40E9409601F910F91FF90EF9008956A
:10491000EF92FF920F931F937B018C012BE73EE0F8
:104920004DE456E30E94206329E136E541E75BE36D
:104930000E940860A80197010E94206321E430EFE3
:104940004BEE58E40E940960A80197010E94206381
:1049500028E33BE84AEB52E40E9409601F910F9163
:10496000FF90EF900895EF92FF920F931F937B01BA
:104970008C012DE731E245E156E30E94206322E4F9
:1049800036EB47E05BE30E940960A80197010E94B3
:1049900020632CE534EC41EF54E40E940860A80148
:1049A00097010E9420632BEC36E14AEF52E40E940B
:1049B00009601F910F91FF90EF9008958F929F9241
:1049C000AF92BF92CF92DF92EF92FF920F931F931D
:1049D000CF93DF934B019C01EC0193E0CC0FDD1FE3
:1049E0009A95E1F7220F331FC20FD31FC454D14E43
:1049F0000F2EF0E0CF2EF0E0DF2EF0E0EF2EF0E013
:104A0000FF2EF02DAA24BB24FE01649184010A0D1F
:104A10001B1D70E0882777FD8095982F0E94886184
:104A2000F80120813181428153810E9420639B01E2
:104A3000AC01C701B6010E9409606B017C0184E0F2
:104A400090E0A80EB91E229694E1A916B104E1F6F1
:104A5000B601C701DF91CF911F910F91FF90EF90A9
:104A6000DF90CF90BF90AF909F908F900895EF927E
:104A7000FF920F931F9320E030E040E251E40E9448
:104A8000ED607B018C012DEC3CEC4CE150E40E948C
:104A900020632EEA37E449EB50E40E9409609B0151
:104AA000AC01C801B7010E94206323EC35EF4EED45
:104AB00051E40E9409609B01AC01C801B7010E944A
:104AC00020632AE037ED43EE50E40E9409609B0129
:104AD000AC01C801B7010E94206323E333E34CE13A
:104AE00052E40E9408609B01AC01C801B7010E941A
:104AF000206325E83BEA49E753E40E9408609B01F4
:104B0000AC01C801B7010E9420632FE135E84DE4F4
:104B100052E40E9408609B01AC01C801B7010E94E9
:104B2000206320E038EE49EF54E40E9409609B01C5
:104B3000AC01C801B7010E94206326E636E646ECC8
:104B40005FE30E9408609B01AC01C801B7010E94AD
:104B5000206321E737E442E955E40E9408609B01A5
:104B6000AC01C801B7010E94206329EB3EEC44EA86
:104B700057E40E9409601F910F91FF90EF900895F4
:104B8000EF92FF920F931F937B018C01CA01B90131
:104B900020E030E041E655E40E94ED609B01AC016D
:104BA000C801B7010E9409601F910F91FF90EF901B
:104BB000089520E030E041E655E40E9420639B0127
:104BC000AC016CE17BEE83EA91EC0E94ED6008950C
:104BD000EF92FF920F931F930E940960A801970123
:104BE0000E9409601F910F91FF90EF90089520E0BF
:104BF00030E041E655E40E9420639B01AC0169E38B
:104C000074EB8CE091E40E94ED6008950E940960CD
:104C100008950E94086008950E94096008959B010C
:104C2000AC0160E070E084EB92E40E9408600895BB
:104C300020E030E044E353E40E9409600895EF92DD
:104C4000FF920F931F930E940860A80197010E9492
:104C5000086020E030E044EB53E40E94ED601F91D7
:104C60000F91FF90EF9008952F923F924F925F9295
:104C70006F927F928F929F92AF92BF92CF92DF926C
:104C8000EF92FF920F931F93DF93CF9300D000D04A
:104C9000CDB7DEB71B012C0129833A834B835C839C
:104CA000C601B50125E33AEF4EE85CE30E942063BC
:104CB0000E94EA603B014C01C201B10124E930E6E7
:104CC0004BEB5BE30E94086029813A814B815C8158
:104CD0000E9408605B016C01C801B701A401930147
:104CE0000E9420639B01AC01C601B5010E940960CE
:104CF00020E030E040E850E40E9420637B018C011A
:104D000020E030E040EA51EC0E94E66088234CF459
:104D1000C801B70120E030E044EB54E40E94096090
:104D200012C0C801B70120E030E040EA51E40E941F
:104D30001563181654F4C801B70120E030E044EBC5
:104D400054E40E9408607B018C01B701C8010F90F8
:104D50000F900F900F90CF91DF911F910F91FF90C7
:104D6000EF90DF90CF90BF90AF909F908F907F900B
:104D70006F905F904F903F902F9008956F927F9229
:104D80008F929F92AF92BF92CF92DF92EF92FF925B
:104D90000F931F933B014C0159016A01C801B701F0
:104DA00025E33AEF4EE85CE30E9420630E94EA604C
:104DB0009B01AC01C601B5010E9420639B01AC01BF
:104DC000C401B3010E9409601F910F91FF90EF9001
:104DD000DF90CF90BF90AF909F908F907F906F901B
:104DE00008956F927F928F929F92AF92BF92CF92CF
:104DF000DF92EF92FF920F931F93CF93DF933B01CC
:104E000049015A01EC01CC24DD240F2EF0E0EF2EF5
:104E1000F0E0FF2EF0E00F2FF0E01F2FF02D22C06A
:104E2000C501B401288539854A855B850E942063C8
:104E30002C813D814E815F810E9409600E94EA6061
:104E4000288139814A815B810E9420639B01AC01EA
:104E5000C801B7010E9409607B018C010894C11C44
:104E6000D11C2C96C614D704DCF2B701C801DF911F
:104E7000CF911F910F91FF90EF90DF90CF90BF9057
:104E8000AF909F908F907F906F9008952F923F9258
:104E90004F925F926F927F928F929F92AF92BF924A
:104EA000CF92DF92EF92FF920F931F93DF93CF93F6
:104EB000CDB7DEB728970FB6F894DEBF0FBECDBFD3
:104EC0009E838D8378876F83FA01280139018401DD
:104ED000000F111F000F111FE00FF11F6081718182
:104EE0008281938125E33AEF4EE85CE30E942063E0
:104EF0000E94EA6069837A838B839C83C301B20139
:104F000025E33AEF4EE85CE30E9420630E94EA60EA
:104F10001B012C01E00EF11EF7016081718182817D
:104F2000938125E33AEF4EE85CE30E9420630E9400
:104F3000EF633B014C018D819E81800F911F9E8309
:104F40008D83EF81F8850E0F1F1FF801608171813D
:104F500082819381A60195010E9408607B018C01EA
:104F600069817A818B819C8120E030E044EB53E4BD
:104F70000E942063A20191010E942063A401930179
:104F80000E9420639B01AC01C801B7010E94ED6043
:104F9000ED81FE8120813181428153810E9409602F
:104FA00028960FB6F894DEBF0FBECDBFCF91DF912C
:104FB0001F910F91FF90EF90DF90CF90BF90AF9037
:104FC0009F908F907F906F905F904F903F902F9029
:104FD00008952F923F924F925F926F927F928F929D
:104FE0009F92AF92BF92CF92DF92EF92FF920F9378
:104FF0001F93DF93CF93CDB7DEB766970FB6F894C4
:10500000DEBF0FBECDBF6B877C878D879E87588B99
:105010004F873A8B298B1C8B0B8B82E391E29E8B03
:105020008D8B1A86198680E090E0A0E0B0E08D8339
:105030009E83AF83B88789839A83AB83BC8389853A
:105040009A856F8578890E94DE2425E33AEF4EE841
:105050005CE30E9420637B018C01ED89FE89A590B1
:10506000B590C590D490ED89FE8934962590359001
:1050700045905490C8010E94EF633B014C01C6016A
:10508000B5010E9486615B016C01C201B1010E9401
:1050900086619B01AC016B857C858D859E850E9418
:1050A00020639B01AC01C601B5010E940960A40107
:1050B00093010E9420639B01AC016D817E818F81F1
:1050C00098850E9409606D837E838F839887ED8920
:1050D000FE8938966590759085909490ED89FE894B
:1050E0003C962590359045905490B701C8010E9498
:1050F000EA605B016C01C401B3010E9486617B011F
:105100008C01C201B1010E9486619B01AC016B85DB
:105110007C858D859E850E9420639B01AC01C80122
:10512000B7010E940960A60195010E9420639B01BE
:10513000AC0169817A818B819C810E9409606983BD
:105140007A838B839C83A985BA851196BA87A987B0
:10515000ED89FE897096FE8BED8BDF9709F06FCF9E
:105160006D817E818F81988520E434E549E05CE49F
:105170000E94ED60A989BA896D937D938D939C936C
:10518000139769817A818B819C8120E434E549E021
:105190005CE40E94ED60EB89FC896083718382830B
:1051A000938366960FB6F894DEBF0FBECDBFCF9146
:1051B000DF911F910F91FF90EF90DF90CF90BF9004
:1051C000AF909F908F907F906F905F904F903F90A7
:1051D0002F9008952F923F924F925F926F927F92FD
:1051E0008F929F92AF92BF92CF92DF92EF92FF92F7
:1051F0000F931F93DF93CF93CDB7DEB728970FB6EA
:10520000F894DEBF0FBECDBF39014A0125E33AEF66
:105210004EE85CE30E9420635B016C01C401B301B2
:1052200025E33AEF4EE85CE30E9420633B014C012A
:10523000B501C6010E94EF636D837E838F839887DB
:10524000B301C4010E94EF6369837A838B839C83DB
:10525000B501C6010E94EA601B012C01B301C40123
:105260000E94EA603B014C01C801B70125E33AEF17
:105270004EE85CE30E9420630E94EA605B016C01DF
:105280006D817E818F81988529813A814B815C81F6
:105290000E9420637B018C01C201B101A401930132
:1052A0000E942063A60195010E9420639B01AC012E
:1052B000C801B7010E9409600E946D6020EE3EE2C5
:1052C00045E652E40E94206328960FB6F894DEBFAC
:1052D0000FBECDBFCF91DF911F910F91FF90EF9047
:1052E000DF90CF90BF90AF909F908F907F906F9006
:1052F0005F904F903F902F9008952F923F924F9242
:105300005F926F927F928F929F92AF92BF92CF9255
:10531000DF92EF92FF920F931F93DF93CF93CDB75E
:10532000DEB728970FB6F894DEBF0FBECDBF3901A8
:105330004A0125E33AEF4EE85CE30E9420635B01FB
:105340006C01C401B30125E33AEF4EE85CE30E942F
:1053500020633B014C01B501C6010E94EF636D83E0
:105360007E838F839887B301C4010E94EF636983B2
:105370007A838B839C83B501C6010E94EA601B017E
:105380002C01B301C4010E94EA603B014C01C80139
:10539000B70125E33AEF4EE85CE30E9420630E94E8
:1053A000EA605B016C016D817E818F819885298126
:1053B0003A814B815C810E9420637B018C01C20198
:1053C000B101A40193010E942063A60195010E94EE
:1053D00020639B01AC01C801B7010E9409600E94D3
:1053E0006D6020EE3EE245E652E40E94206328967E
:1053F0000FB6F894DEBF0FBECDBFCF91DF911F91E6
:105400000F91FF90EF90DF90CF90BF90AF909F9063
:105410008F907F906F905F904F903F902F90089566
:105420002F923F924F925F926F927F928F929F92B4
:10543000AF92BF92CF92DF92EF92FF920F931F93A2
:10544000DF93CF93CDB7DEB728970FB6F894DEBFC2
:105450000FBECDBF39014A0125E33AEF4EE85CE3C8
:105460000E9420635B016C01C401B30125E33AEFA4
:105470004EE85CE30E9420633B014C01B501C6018C
:105480000E94EF636D837E838F839887B301C4018D
:105490000E94EA6069837A838B839C83B501C6018D
:1054A0000E94EA601B012C01B301C4010E94EF635A
:1054B0003B014C01C801B70125E33AEF4EE85CE33C
:1054C0000E9420630E94EF635B016C016D817E810D
:1054D0008F81988529813A814B815C810E9420636C
:1054E0007B018C01C201B101A40193010E942063E0
:1054F000A60195010E9420639B01AC01C801B70180
:105500000E9409600E946D6020EE3EE245E652E492
:105510000E94206328960FB6F894DEBF0FBECDBF61
:10552000CF91DF911F910F91FF90EF90DF90CF907F
:10553000BF90AF909F908F907F906F905F904F90B3
:105540003F902F9008952F923F924F925F926F92CB
:105550007F928F929F92AF92BF92CF92DF92EF9203
:10556000FF920F931F93DF93CF93CDB7DEB72C97A6
:105570000FB6F894DEBF0FBECDBF29873A874B87A1
:105580005C8725E33AEF4EE85CE30E9420633B0131
:105590004C01C601B50125E33AEF4EE85CE30E94F9
:1055A00020635B016C01B301C4010E94EA606D835A
:1055B0007E838F839887B501C6010E94EA60698364
:1055C0007A838B839C83B501C6010E94EF631B0124
:1055D0002C01B301C4010E94EF633B014C016985BA
:1055E0007A858B859C85A80197010E94086025E338
:1055F0003AEF4EE85CE30E9420630E94EA605B01A0
:105600006C016D817E818F81988529813A814B81E2
:105610005C810E9420637B018C01C201B101A40165
:1056200093010E942063A60195010E9420639B01C3
:10563000AC01C801B7010E9409600E94FA5F20EE28
:105640003EE245E652E40E9420632C960FB6F894A1
:10565000DEBF0FBECDBFCF91DF911F910F91FF90A5
:10566000EF90DF90CF90BF90AF909F908F907F9002
:105670006F905F904F903F902F9008952F923F92A0
:105680004F925F926F927F928F929F92AF92BF9252
:10569000CF92DF92EF92FF920F931F933B014C0149
:1056A00019012A01C801B70128EF38E848E85EE38C
:1056B0000E9409609B01AC015058C601B5010E94CF
:1056C000156387FF05C0E0E070E080E060E058C04F
:1056D000C601B5012FE135E843EA50E40E940960B4
:1056E0009B01AC016DEC7CEC84E291E40E94ED60E6
:1056F0009B01AC01C601B5010E94096025E33AEFA8
:105700004EE85CE30E9420630E943A645B016C01F6
:10571000C401B30120E030E84CE754E40E94ED609E
:105720007B018C01C201B10120E030E848E853E47C
:105730000E9409609B01AC0160E070E88DE893E491
:105740000E94ED609B01AC01C801B7010E9420637B
:105750002CE53FE842E85FE30E9420637B018C0177
:10576000C601B50120E030E040E752E40E9420632A
:105770009B01AC01C801B7010E94ED60E62F692FC3
:105780002E2F372F482F562FB901CA011F910F9185
:10579000FF90EF90DF90CF90BF90AF909F908F9051
:1057A0007F906F905F904F903F902F9008952F9231
:1057B0003F924F925F926F927F928F929F92AF92A1
:1057C000BF92CF92DF92EF92FF920F931F93DF93DE
:1057D000CF93CDB7DEB72C970FB6F894DEBF0FBED0
:1057E000CDBF39014A0125E33AEF4EE85CE30E9460
:1057F00020635B016C01C401B30125E33AEF4EE87D
:105800005CE30E9420633B014C01B501C6010E948C
:10581000EF6369877A878B879C87B501C6010E94F1
:10582000EA606D837E838F839887B301C4010E94F1
:10583000EF6369837A838B839C83C801B70125E377
:105840003AEF4EE85CE30E9420630E943A641B0139
:105850002C01B301C4010E94EA605B016C016D81FF
:105860007E818F81988529813A814B815C810E945C
:1058700020637B018C01C201B101A60195010E9448
:1058800020639B01AC01C801B7010E9408609B0125
:10589000AC0169857A858B859C850E94936020EE9A
:1058A0003EE245E652E40E9420632C960FB6F8943F
:1058B000DEBF0FBECDBFCF91DF911F910F91FF9043
:1058C000EF90DF90CF90BF90AF909F908F907F90A0
:1058D0006F905F904F903F902F9008952F923F923E
:1058E0004F925F926F927F928F929F92AF92BF92F0
:1058F000CF92DF92EF92FF920F931F93DF93CF939C
:10590000CDB7DEB7A4970FB6F894DEBF0FBECDBFFC
:1059100029A33AA34BA35CA325E33AEF4EE85CE34B
:105920000E9420633B014C01C601B50125E33AEF1B
:105930004EE85CE30E9420635B016C0169AD7AADC7
:105940008BAD9CAD25E33AEF4EE85CE30E9420630B
:105950001B012C01B301C4010E943A6425E434E226
:105960004FE75FE30E9420630E94BE6069837A83F1
:105970008B839C830E94EF636D8F7E8F8F8F98A3A4
:10598000B301C4010E94EF63698F7A8F8B8F9C8F64
:1059900069817A818B819C810E94EA606D8B7E8B0C
:1059A0008F8B988FB301C4010E94EA609B01AC0108
:1059B00069A17AA18BA19CA10E94206328E335EA0A
:1059C00042EC5AE40E94ED609B01AC016D897E8936
:1059D0008F89988D0E9409603B014C01C801B70175
:1059E00025E33AEF4EE85CE30E9420630E94EF63F8
:1059F000698B7A8B8B8B9C8BB501C6010E94EF6300
:105A00006D877E878F87988BB101C2010E94EA6003
:105A100069877A878B879C87B501C6010E94EA60F7
:105A20007B018C01C401B30129893A894B895C89C6
:105A30000E942063A80197010E9420639B01AC0192
:105A400069857A858B859C850E9408607B018C0125
:105A500097FA909497F89094C401B30129893A89F0
:105A60004B895C890E9420632D853E854F8558892E
:105A70000E9420639701A8010E9493606D837E833A
:105A80008F839887B101C2010E94EF633B014C01F3
:105A90006D817E818F8198850E94EA601B012C01B7
:105AA0006D8D7E8D8F8D98A125E434E24FE75FE305
:105AB0000E9420635B016C0169A17AA18BA19CA16A
:105AC000298D3A8D4B8D5C8D0E94206328E335EA49
:105AD00042EC5AE40E94ED609B01AC01C601B501A5
:105AE0000E94096029893A894B895C890E94206358
:105AF0009B01AC01C401B3010E940860A2019101A5
:105B00000E9420639701A8010E94936020EE3EE26C
:105B100045E652E40E9420632196EEADFFAD219749
:105B200060837183828393836D817E818F81988569
:105B300020EE3EE245E652E40E942063EDADFEAD6C
:105B40006083718382839383A4960FB6F894DEBF3B
:105B50000FBECDBFCF91DF911F910F91FF90EF90BE
:105B6000DF90CF90BF90AF909F908F907F906F907D
:105B70005F904F903F902F9008956F927F928F92F9
:105B80009F92AF92BF92CF92DF92EF92FF920F93CC
:105B90001F93CF93DF933B0159016A014C01C0E091
:105BA000D0E00F2EF0E0EF2EF0E0FF2EF0E00F2F10
:105BB000F0E01F2FF02D22C0BE01882777FD8095D1
:105BC000982F0E9488619B01AC01C601B5010E941B
:105BD00083639B01AC01CA01B901F40121913191A8
:105BE000419151914F010E9420639B01AC01C8017A
:105BF000B7010E9409607B018C012196C615D7056B
:105C0000DCF2C801B70120E23CEB4EEB5CE40E9401
:105C1000ED60DF91CF911F910F91FF90EF90DF909A
:105C2000CF90BF90AF909F908F907F906F9008958E
:105C30002F923F924F925F926F927F928F929F929C
:105C4000AF92BF92CF92DF92EF92FF920F931F938A
:105C5000DF93CF93CDB7DEB7A4970FB6F894DEBF2E
:105C60000FBECDBF69A37AA38BA39CA32CE132E026
:105C70003A8F298FCE010196988F8F8BECE5F5E155
:105C8000FC8FEB8F66C0ED89FE89659075908590DD
:105C90009490ED89FE8934966591759185919491E2
:105CA000ED89FE893896E590F590059114910E9452
:105CB00086615B016C01C801B7010E94866129A160
:105CC0003AA14BA15CA10E9420639B01AC01C601DB
:105CD000B5010E9409600E94EA607B018C01C40149
:105CE000B3010E948661A80197010E9420639B0175
:105CF000AC01C201B1010E9409601B012C012D8D74
:105D00003E8D2F5F3F4F3E8F2D8F8D899E890C9644
:105D10009E8B8D8BED8DFE8D2F8D38A1E217F307B5
:105D20000CF4B1CFEF89F88D2192319241925192CA
:105D3000F88FEF8B298D3A8D2E5F3F4F3A8F298F49
:105D40008B8D9C8D80529E4F9C8F8B8F2652324024
:105D5000C1F0E98DFA8D0190F081E02DF8A3EF8F6D
:105D60002B8D3C8D3E8B2D8B1E8E1D8E0F2EF0E0CD
:105D70002F2EF0E03F2EF0E04F2EF0E05F2EF02DC2
:105D8000C9CFCE01019665E070E029A13AA14BA1EF
:105D90005CA10E94BD2DA4960FB6F894DEBF0FBE85
:105DA000CDBFCF91DF911F910F91FF90EF90DF90CA
:105DB000CF90BF90AF909F908F907F906F905F90AB
:105DC0004F903F902F9008952F923F924F925F9265
:105DD0006F927F928F929F92AF92BF92CF92DF92FB
:105DE000EF92FF920F931F93DF93CF93CDB7DEB760
:105DF00068970FB6F894DEBF0FBECDBF6D8B7E8B5C
:105E00008F8B988F28E132E03E872D87CE01019657
:105E10009C878B87E4EEF4E1F88BEF8765C0E9851A
:105E2000FA856590759085909490E985FA85349609
:105E30006591759185919491E985FA853896E590FB
:105E4000F590059114910E9486615B016C01C80177
:105E5000B7010E9486612D893E894F89588D0E9425
:105E600020639B01AC01C601B5010E9409600E943C
:105E7000EA607B018C01C401B3010E948661A80124
:105E800097010E9420639B01AC01C201B1010E94F5
:105E900009601B012C0129893A892F5F3F4F3A8BFA
:105EA000298B89859A850C969A878987E989FA8949
:105EB0002B893C89E217F3070CF4B1CFEB85FC8505
:105EC0002192319241925192FC87EB872D853E853C
:105ED0002E5F3F4F3E872D878F859889CC96988B74
:105EE0008F872C513240C1F0ED85FE850190F08105
:105EF000E02DFC8BEB8B2F8538893A8729871A8A0E
:105F0000198A0F2EF0E02F2EF0E03F2EF0E04F2EFA
:105F1000F0E05F2EF02DCACFCE01019662E070E076
:105F20002D893E894F89588D0E94BD2D20EE3EE27D
:105F300045E652E40E94206368960FB6F894DEBFEF
:105F40000FBECDBFCF91DF911F910F91FF90EF90CA
:105F5000DF90CF90BF90AF909F908F907F906F9089
:105F60005F904F903F902F9008952F923F924F92C5
:105F70005F926F927F928F929F92AF92BF92CF92D9
:105F8000DF92EF92FF920F931F93DF93CF93CDB7E2
:105F9000DEB728970FB6F894DEBF0FBECDBF9A8349
:105FA00089833B014A013C832B831E830D83F88642
:105FB000EF82633071054CF48CE090E0680E791E3E
:105FC000E981FA813197FA83E98329813A81B9011C
:105FD000882777FD8095982F0E94886120E030E621
:105FE00043E955E40E94096020E030EA46EB53E4BF
:105FF0000E9420630E94C3617B018C010894611C94
:10600000711CB301882777FD8095982F0E948861C5
:1060100021E03DEC44EF51E40E9420630E94C36103
:106020009B01AC01C801B7010E9409601B012C0152
:10603000B401882777FD8095982F0E9488613B01E5
:106040004C01EB81FC81BF01882777FD8095982F5B
:106050000E948861A60195010E9408605B016C01A5
:106060002D813E81B901882777FD8095982F0E9468
:1060700088617B018C01EF81F885BF01882777FD5E
:106080008095982F0E94886120E030E040E752E43C
:106090000E94ED609B01AC01C801B7010E9409603C
:1060A00020E030E040E752E40E94ED609B01AC014B
:1060B000C601B5010E94096020E030E040EC51E4E7
:1060C0000E94ED609B01AC01C401B3010E94096014
:1060D0009B01AC01C201B1010E94096020E030E9DE
:1060E0004EEB54E40E9408603B014C0120E634E58D
:1060F0004CE05AE40E941563181674F589819A8160
:1061000064E670E00E945465882777FD8095982F9B
:106110000E9488610E94C3617B018C0120E030E015
:1061200040E85EE30E9420630E94C3615B016C0152
:1061300060E070E080E090E4A80197010E940860B0
:10614000A60195010E9409609B01AC01C401B30145
:106150000E9409603B014C01B301C40128960FB6AF
:10616000F894DEBF0FBECDBFCF91DF911F910F918D
:10617000FF90EF90DF90CF90BF90AF909F908F9067
:106180007F906F905F904F903F902F900895EF9287
:10619000FF920F931F937B018C010E94C3619B01AF
:1061A000AC01C801B7010E9408607B018C0120E0AE
:1061B00030E040E050E00E94E660882354F4C801DB
:1061C000B70120E030E040E85FE30E9409607B0116
:1061D0008C01B701C8011F910F91FF90EF900895B6
:1061E0002F923F924F925F926F927F928F929F92E7
:1061F000AF92BF92CF92DF92EF92FF920F931F93D5
:10620000CF93DF93EC011A012B01EC80FD800E810E
:106210001F81C801B701288139814A815B810E94B1
:1062200008603B014C01688579858A859B85A801BA
:1062300097010E9408605B016C01C401B3019F7764
:1062400020E030E040E050E40E941563882334F001
:10625000C401B3010E94C7303B014C01C601B50126
:106260009F7720E030E040E050E40E9415638823EF
:1062700034F0C601B5010E94C7305B016C01C40156
