:100000000C94E5000C94F7000C94F7000C94900706
:100010000C94C9060C9463070C9409070C943607DA
:100020000C949C060C9449060C94F7000C94E60181
:100030000C94F7000C942B020C94F7000C94F7002E
:100040000C94F7000C94F7003031323334353637E6
:100050003839414243444546000000010008004051
:1000600000000100040000010008002000400080A2
:1000700000000100041B5B25643B256448001B5BFA
:100080003F32356C001B5B3F323568001B5B2564DB
:100090006D001B5B324A001B630054686973206962
:1000A00073206120666F726D61747465642064658D
:1000B00063696D616C206E756D6265723A200054E3
:1000C000686973206973206120382D6469676974D9
:1000D00020686578206E756D62657220286C6F6E81
:1000E0006729203A200054686973206973206120D1
:1000F000342D646967697420686578206E756D6257
:100100006572202873686F7274293A2000546869F8
:1001100073206973206120322D64696769742068D7
:100120006578206E756D626572202863686172293A
:10013000203A200054686973206973206120636845
:10014000617261637465723A2025630D0A00546818
:100150006973206973206120686578206E756D620F
:1001600065723A2025780D0A005468697320697316
:10017000206120646563696D616C206E756D6265D8
:10018000723A2025640D0A0020576F726C642100BA
:100190000D0A57656C636F6D6520746F2072707205
:1001A000696E74662054657374210D0A000D0A543B
:1001B000686973206973206D7920636F6F6C20709C
:1001C000726F6772616D210D0A0011241FBECFE5A9
:1001D000D4E0DEBFCDBF11E0A0E6B0E001C01D92CB
:1001E000A231B107E1F70E9426090C94AD090C94E5
:1001F0000000FC018FB7F8947183608353834283BE
:1002000017821682158214828FBF0895DC014FB7C2
:10021000F89414968D919C911597892B11F4E0E038
:1002200025C016968D919C911797ED91FC91119791
:10023000E80FF91FE081019617969C938E9316970D
:1002400012962D913C9113978217930730F0821BE1
:10025000930B17969C938E93169714968D919C9161
:100260001597019715969C938E9314974FBF8E2FD9
:100270000895FC014FB7F894848195816817790738
:10028000B0F486819781860F971F9783868322819A
:1002900033818217930720F0821B930B9783868309
:1002A00084819581861B970B9583848302C0158278
:1002B00014824FBF0895FC01CB012FB7F8942FBFD4
:1002C0002681378162817381820F931F0E945C09AE
:1002D0000190F081E02DE80FF91F808108951F93B0
:1002E000CF93DF93EC01162F4FB7F8942C813D810B
:1002F0006A817B812617370798F48E819F81820F50
:10030000931F0E945C09E881F981E80FF91F1083AF
:100310008C819D8101969D838C834FBF8FEF02C09E
:100320004FBF80E0DF91CF911F910895FC018FB7FF
:10033000F8948FBF2281338184819581281B390BEA
:10034000C9010895FC018FB7F894158214828FBFFC
:1003500008959093E1008093E00008959B01AC0123
:100360006050704F814F9F4FF3E0660F771F881FDB
:10037000991FFA95D1F7E4E0220F331F441F551F50
:10038000EA95D1F70E9470092150304029B90895AB
:1003900083EF90E008958CEF90E00895982F80917E
:1003A000F2008823E1F39CB91092F20008951092B4
:1003B000F8001092F70008958091F7009091F800EE
:1003C000892B11F080E008958FEF08951F920F920E
:1003D0000FB60F9211242F933F934F935F936F9318
:1003E0007F938F939F93AF93BF93EF93FF936CB1E2
:1003F0008091E0009091E100892B39F0E091E000DC
:10040000F091E100862F09950FC083EF90E00E94E4
:100410006F01882349F480910401909105010196B0
:100420009093050180930401FF91EF91BF91AF91EB
:100430009F918F917F916F915F914F913F912F91FC
:100440000F900FBE0F901F901895682F8CEF90E0C3
:100450000E946F0108951F920F920FB60F92112400
:100460002F933F934F935F936F937F938F939F93BC
:10047000AF93BF93EF93FF938091FB00882371F0BC
:100480008091000190910101892B31F08CEF90E077
:100490000E9406018CB905C01092FB008FEF80937B
:1004A000F200FF91EF91BF91AF919F918F917F915A
:1004B0006F915F914F913F912F910F900FBE0F90D1
:1004C0001F9018958FEF8093FB008CEF90E00E94B7
:1004D0000601982F8091F2008823E1F39CB91092D5
:1004E000F2000895CF93DF93EC018091F500909195
:1004F000F600892B69F08091F7009091F800892B24
:1005000039F083EF90E00E94060188838FEF01C0ED
:1005100080E0DF91CF910895DF93CF930F92CDB715
:10052000DEB7CE0101960E947202882319F42FEFE4
:100530003FEF03C08981282F30E0C9010F90CF9190
:10054000DF91089583EF90E060E670E040E450E0D2
:100550000E94F9008CEF90E060EA70E040E450E027
:100560000E94F90008950E94A2021092E1001092E8
:10057000E00088ED8AB960E875E280E090E00E94D2
:10058000AE018FEF8093F2001092FB0010920501F4
:1005900010920401789408959093E3008093E20010
:1005A00008951F93182F8A3031F4E091E200F09102
:1005B000E3008DE00995E091E200F091E300812FE6
:1005C00009951F910895CF93DF93EC01009721F4D3
:1005D00006C021960E94D10288818823D1F7DF913D
:1005E000CF910895EF92FF920F931F93CF93DF93D4
:1005F0008C017A010097E9F020E030E026173707F8
:1006000038F4F80181918F012F5F3F4F8823B1F7B4
:10061000C0E0D0E00BC0F8018081882319F00F5FA3
:100620001F4F01C080E20E94D1022196CE15DF0546
:1006300090F3DF91CF911F910F91FF90EF9008956C
:10064000CF93DF93EC01009719F407C00E94D10209
:10065000FE01219684918823C9F7DF91CF910895F7
:100660008AE00E94D1020895E82FF0E0EF70F07068
:10067000E85BFF4FE4918E2F0E94D10208951F93F3
:10068000182F82958F700E943403812F0E943403AB
:100690001F9108951F93182F892F0E943F03812FC8
:1006A0000E943F031F910895EF92FF920F931F93B3
:1006B0007B018C01C801AA27BB270E944A03C701FE
:1006C0000E944A031F910F91FF90EF9008952F927F
:1006D0003F924F925F926F927F928F929F92AF92D2
:1006E000BF92CF92DF92EF92FF920F931F93DF930F
:1006F000CF93CDB7DEB7A3970FB6F894DEBF0FBE8A
:10070000CDBF4AA32BA337014801442351F017FF63
:1007100008C0EE24FF248701E618F7080809190924
:1007200002C084017301262E262F215090E03AA1A9
:10073000311191E0291B29A318A2A82EBB24A7FCE4
:10074000B094CB2CDB2CC801B701A60195010E9407
:100750007009FB01EF70F070E85BFF4F64916F8FE1
:10076000C801B701A60195010E947009C901DA010B
:100770007C018D019EE1492E512C4C0E5D1E39A04D
:1007800025C0E114F10401051105C9F0C801B70144
:10079000A60195010E947009FB01EF70F070E85B03
:1007A000FF4F6491F2016083C801B701A601950172
:1007B0000E947009C901DA017C018D0103C02BA1DF
:1007C000F20120833A940894410851083320C9F675
:1007D000CE014F968C0139A1031B11098AA18823F0
:1007E000E1F097FE05C08DE2F80182938F0115C0FC
:1007F000C8010197611471048104910419F08C01FE
:100800008BE202C08C0180E2F801808306C0F8010F
:1008100081918F010E94D1022A942220C1F7A396D0
:100820000FB6F894DEBF0FBECDBFCF91DF911F9101
:100830000F91FF90EF90DF90CF90BF90AF909F907F
:100840008F907F906F905F904F903F902F90089582
:100850007F928F929F92AF92BF92CF92DF92EF9250
:10086000FF920F931F93DF93CF93CDB7DEB77888B6
:10087000C988DA8853E1E52EF12CEC0EFD1E14C078
:10088000882381F480E090E0CF91DF911F910F9158
:10089000FF90EF90DF90CF90BF90AF909F908F90A0
:1008A0007F9008950E94D10296012F5F3F4F7720DD
:1008B00021F0F6016901849103C0F601808169018C
:1008C0008532F1F62F5F3F4F772021F0F601690165
:1008D000849103C0F60180816901843629F088374C
:1008E00081F08336F9F606C000E117E24AE0A42E53
:1008F000B12C0CC0F701808122E030E0E20EF31E43
:10090000D1CF00E010E130E1A32EB12C22E0822E05
:10091000912C8E0C9F1CF701E080F1808436B1F49D
:10092000F7FE11C0F094E194F108F3948DE20E9477
:10093000D10209C0C8016AE070E00E945C098B0125
:100940006230710518F0E016F106A0F3C701B80196
:100950000E945C09862F0E943403C701B8010E94DF
:100960005C097C01C801B5010E945C098B0161151D
:10097000710561F7740198CF089583B7887F82600D
:1009800083BF12BE89B7816089BF109206011092A1
:100990000701109208011092090108958EB5887F11
:1009A00083608EBD1DBC1CBC89B7846089BF08955F
:1009B00085B5887F846085BD14BC89B7806489BF94
:1009C00010920E0110920F0110921001109211015D
:1009D000089580E090E0FC01EE0FFF1FEC51FF4F07
:1009E00011821082019687309105A9F70E94BD04FB
:1009F0000E94CE040E94D8047894089593B7987FFB
:100A0000982B93BF08959EB5987F982B9EBD08950F
:100A100095B5987F982B95BD089583B7E82FF0E0A2
:100A2000E770F070EE0FFF1FE75AFF4F25913491EA
:100A3000C90108958EB5E82FF0E0E770F070EE0F71
:100A4000FF1FE75AFF4F25913491C901089585B5DD
:100A5000E82FF0E0E770F070EE0FFF1FEB59FF4F4B
:100A600025913491C9010895873040F4E82FF0E0D2
:100A7000EE0FFF1FEC51FF4F7183608308958730A5
:100A800040F4E82FF0E0EE0FFF1FEC51FF4F118212
:100A900010820895EF92FF920F931F93CF93DF93ED
:100AA000EC0112B710920A0110920B0110920C0186
:100AB00010920D0183B7E82FF0E0E770F070EE0FB1
:100AC000FF1FE75AFF4F2591349140E050E060E06E
:100AD00070E880E790E00E949209B901CA01693B81
:100AE0002DE8720726E0820720E09207A0F437E2A3
:100AF000C131D30780F49E0140E050E00E943D09DF
:100B000028EE33E040E050E00E947009C901DA01AC
:100B1000BC01CD0121C028EE33E040E050E00E944E
:100B20007009CA01B9019E0140E050E00E943D09F0
:100B300013C080910A0190910B01A0910C01B0911A
:100B40000D0185B78F7C85BF85B7806485BF88958B
:100B500085B78F7B85BF08C09B01AC01210F311D7C
:100B6000411D511D79018A0120910A0130910B012B
:100B700040910C0150910D0182B790E0A0E0B0E0EF
:100B8000542F432F322F2227822B932BA42BB52BAC
:100B90008E159F05A007B10760F2DF91CF911F91DD
:100BA0000F91FF90EF9008951092060110920701A7
:100BB00010920801109209010895209106013091C8
:100BC00007014091080150910901B901CA01089536
:100BD00010920E0110920F0110921001109211014B
:100BE000089520910E0130910F0140911001509114
:100BF0001101B901CA010895893031F48FB58260BD
:100C00008FBD8FB58E7F0AC08A3019F48FB5826090
:100C100002C08FB58D7F8FBD8FB581608FBD1BBC2E
:100C20001ABC19BC18BC08958FB58D7F8FBD8FB5C8
:100C30008E7F8FBD8FB58F778FBD8FB58F7B8FBD2B
:100C40008FB58F7D8FBD8FB58F7E8FBD08958FB58A
:100C500080688FBD8FB58F7B8FBD08958FB5806203
:100C60008FBD8FB58F7E8FBD08958FB58F778FBD68
:100C70008FB58F7B8FBD08958FB58F7D8FBD8FB55D
:100C80008F7E8FBD08959BBD8ABD089599BD88BD97
:100C900008951F920F920FB60F9211242F933F9336
:100CA0004F935F936F937F938F939F93AF93BF9374
:100CB000EF93FF938091060190910701A0910801A5
:100CC000B09109010196A11DB11D80930601909379
:100CD0000701A0930801B093090180910A01909146
:100CE0000B01A0910C01B0910D010196A11DB11D48
:100CF00080930A0190930B01A0930C01B0930D0116
:100D00008091E4009091E500892B29F0E091E400C6
:100D1000F091E5000995FF91EF91BF91AF919F91FF
:100D20008F917F916F915F914F913F912F910F9094
:100D30000FBE0F901F9018951F920F920FB60F9233
:100D400011242F933F934F935F936F937F938F93D0
:100D50009F93AF93BF93EF93FF938091E6009091A1
:100D6000E700892B29F0E091E600F091E700099572
:100D7000FF91EF91BF91AF919F918F917F916F9173
:100D80005F914F913F912F910F900FBE0F901F9049
:100D900018951F920F920FB60F9211242F933F9325
:100DA0004F935F936F937F938F939F93AF93BF9373
:100DB000EF93FF9380910E0190910F01A09110018C
:100DC000B09111010196A11DB11D80930E01909368
:100DD0000F01A0931001B09311018091EE0090914A
:100DE000EF00892B29F0E091EE00F091EF000995DA
:100DF000FF91EF91BF91AF919F918F917F916F91F3
:100E00005F914F913F912F910F900FBE0F901F90C8
:100E100018951F920F920FB60F9211242F933F93A4
:100E20004F935F936F937F938F939F93AF93BF93F2
:100E3000EF93FF938091E8009091E900892B29F0CE
:100E4000E091E800F091E9000995FF91EF91BF91E1
:100E5000AF919F918F917F916F915F914F913F9152
:100E60002F910F900FBE0F901F9018951F920F9209
:100E70000FB60F9211242F933F934F935F936F936D
:100E80007F938F939F93AF93BF93EF93FF93809143
:100E9000EA009091EB00892B29F0E091EA00F091B3
:100EA000EB000995FF91EF91BF91AF919F918F91C9
:100EB0007F916F915F914F913F912F910F900FBE56
:100EC0000F901F9018951F920F920FB60F9211243A
:100ED0002F933F934F935F936F937F938F939F9342
:100EE000AF93BF93EF93FF938091EC009091ED004F
:100EF000892B29F0E091EC00F091ED000995FF912C
:100F0000EF91BF91AF919F918F917F916F915F9181
:100F10004F913F912F910F900FBE0F901F901895FA
:100F20001F920F920FB60F9211242F933F934F935E
:100F30005F936F937F938F939F93AF93BF93EF9341
:100F4000FF938091F0009091F100892B29F0E091BE
:100F5000F000F091F1000995FF91EF91BF91AF91F1
:100F60009F918F917F916F915F914F913F912F91C1
:100F70000F900FBE0F901F9018952DB73EB72750BA
:100F800030400FB6F8943EBF0FBE2DBFEDB7FEB791
:100F9000319691E0ADB7BEB711969C9325E730E04E
:100FA0003283218383831482658316820E942804FE
:100FB0002DB73EB7295F3F4F0FB6F8943EBF0FBE27
:100FC0002DBF0895882349F000D00F9281E0EDB73E
:100FD000FEB7818385E890E008C000D00F9281E0E1
:100FE000EDB7FEB781838EE790E0938382830E9402
:100FF00028040F900F900F90089500D000D00F920A
:10100000EDB7FEB7319691E0ADB7BEB711969C93A0
:101010002CE830E032832183838314820E942804E9
:101020000F900F900F900F900F90089582E990E02D
:101030000E942003089587E990E00E94200308950C
:10104000EF92FF920F931F93DF93CF93CDB7DEB74D
:101050002A970FB6F894DEBF0FBECDBF00D00F9217
:10106000FF24F394ADB7BEB71196FC9211978DEAA9
:1010700091E013969C938E9312970E942804EDB7EB
:10108000FEB7F18280E991E0938382830E94280475
:101090000F900F900F9088E40E94D10285E60E9485
:1010A000D1028CE60E94D1028CE60E94D1028FE62A
:1010B0000E94D10288E891E00E9420030E94300340
:1010C00081E4898380E28A8383E58B8384E78C8350
:1010D00082E78D8389E68E838EE68F8387E6888715
:1010E00081E289871A868E010F5F1F4FC8010E9417
:1010F000E3020E943003C80162E070E046E050E085
:101100000E94F2020E94300300D000D00F92EDB78F
:10111000FEB73196ADB7BEB71196FC9289E691E065
:10112000928381838CEF9DE5948383830E942804BE
:10113000EDB7FEB73196ADB7BEB71196FC928EE40F
:1011400091E0928381830CE410E0148303830E9476
:101150002804EDB7FEB73196ADB7BEB71196FC9235
:1011600084E391E092838183148303830E942804A3
:101170000F900F90EDB7FEB7F1828DE091E0938371
:1011800082830E9428040F900F900F9082E10E94AA
:101190003F030E94300300D00F92ADB7BEB7119647
:1011A000FC92119786EE90E013969C938E93129783
:1011B0000E9428040F900F900F9084E392E10E9408
:1011C0004A030E94300300D00F92EDB7FEB7F182C0
:1011D0008FEB90E0938382830E9428040F900F90FE
:1011E0000F9068E776E584E392E10E9454030E9441
:1011F000300300D00F92ADB7BEB71196FC92119795
:101200008AE990E013969C938E9312970E9428048B
:101210000F900F900F908AE068E04FEF2EE29CEF66
:10122000E92E9DE5F92E012D112D0E9467030E94E4
:1012300030032A960FB6F894DEBF0FBECDBFCF9114
:10124000DF911F910F91FF90EF9008950E94B302DC
:1012500060E875E280E090E00E94AE010E94E9043F
:101260008EEC91E00E94CC020E941B080E9416089E
:101270000E94200880E090E00895629FD001739F53
:10128000F001829FE00DF11D649FE00DF11D929F22
:10129000F00D839FF00D749FF00D659FF00D992761
:1012A000729FB00DE11DF91F639FB00DE11DF91F85
:1012B000BD01CF0111240895AA1BBB1B51E107C03A
:1012C000AA1FBB1FA617B70710F0A61BB70B881FD6
:1012D000991F5A95A9F780959095BC01CD01089565
:1012E000A1E21A2EAA1BBB1BFD010DC0AA1FBB1F2A
:1012F000EE1FFF1FA217B307E407F50720F0A21B9C
:10130000B30BE40BF50B661F771F881F991F1A9408
:1013100069F760957095809590959B01AC01BD0132
:10132000CF01089597FB092E05260ED057FD04D056
:10133000D7DF0AD0001C38F45095409530952195A0
:101340003F4F4F4F5F4F0895F6F7909580957095FA
:0E13500061957F4F8F4F9F4F0895F894FFCF08
:00000001FF
